:400000000080002011000000910400009104000008B5044B1A6803F53F5302331A6000F039FA00BFFA46004010B5054C237833B9044B13B10448AFF300800123237010BD1A
:400040002081FF1F00000000C8180000084B10B51BB108480849AFF300800848036803B910BD074B002BFBD0BDE81040184700BF00000000C81800002481FF1F0881FF1F51
:400080000000000008B500F0D9FC0A2801D000F0CDFD08BD08B500F0D3FB00F037FC00F015FE012000F0C6FD0020014600F01CFE00F096FC00F0B4FC034800F083FC03482F
:4000C00000F0ECFC08BD00BF910100008500000070B584B00D4E012333600D4C6846002100F084F89DE80F0084E80F0033685A1C3260014604EB03146846FF2200F0EAF8EE
:400100009DE80F0084E80F0004B070BD4481FF1F4881FF1F38B500240DE0094D15F8140000F056FB05EB4405687800F0B7FB032000F024FC0134034B1B689C42EDDB38BDC0
:400140004C83FF1F4C93FF1F10B50C4A9369033B9361002B02DAFF22084B9A61084C094B18680649224600F0F7F8074B1860214600F02EF90122054B1A7010BD4881FF1F1F
:400180004C8BFF1F4481FF1F5093FF1F4883FF1F08B5FFF7D9FF08BD08B562B6FFF77AFFFFF796FF0C4B1B78012B11D10B4B18680B4B1860002306E00A4A32F813100A4AC4
:4001C00022F8131001338342F6DB0022024B1A70FFF7A0FFE6E700BF4883FF1F5093FF1F4C93FF1F4C8BFF1F4C83FF1FF0B40022134612E05E1C0B44C2EB02252C46002DC8
:4002000001DA05F10F042511314C04F8135004EB430300245C70013233460F2AEADD002212E05E1C0B44C2EB02252C46002D01DA05F10F042511264CFF2704F8137004EB87
:4002400043035D70013233460F2AEADD002213E05E1C0B44C2EB02242546002C01DA04F10F051B4C6FEA251504F8135004EB4303FF245C70013233460F2AE9DD002213E056
:400280005E1C0B44C2EB02242546002C01DA04F10F050F4C002704F8137004EB43036FEA25155D70013233460F2AE9DD5D1C0B44074A002402F8134002EB43035C7002EB70
:4002C0004101056044608460C160F0BC704700BF5493FF1FF0B40024234611E05F1C0B44C4EB04263546002E00DAF51DEE10194D05F8136005EB430300255D7001343B467B
:40030000072CEBDD002412E05F1C0B44C4EB04252E46002D00DAEE1D0E4D6FEAE60605F8136005EB430300255D7001343B46072CEADD5E1C0B44074C002504F8135004EB0D
:4003400043035D7004EB4101066045608260C160F0BC70475493FF1F2DE9F04184464FF0000E70462EE0F36803EB450813F81540776898F80180B3684344461C400002EB8A
:400380000008E41905D4FF2C01DCE4B202E0FF2400E00024002B05DBFF2B01DCDBB202E0FF2300E00023145488F801300135304600E000254FEA0E13CE18CB58AB42D2DC4A
:4003C0000EF1010EE645F4DBBDE8F081000000002DE9F04F83B082460D46002443E005EB440815F8149098F8010000F0FBFD06460F461FA3D3E9002300F05AFECDE900014E
:40040000484600F0EFFDDDE9002300F09FFC01F061F883463046394617A3D3E9002300F047FE01F057F881463046394614A3D3E9002300F03DFE0022134B00F087FC01F067
:4004400049F806465846314601F048F901F0E2F905F814004846314601F040F901F0DAF988F8010001345445B9DB03B0BDE8F08FE24EF1D14517FD3F71A7F8E8A28B12401D
:400480000FF10F5B7A348D3F0000F03FAFF30080FEE700BF08B5104E104D16E029686B68AC68002204E051F8040B43F8040B0432A242F8D1E868002203E0002143F8041B22
:4004C00004328242F9D11035013E002EE6D101F0C1F9FFF761FEFEE7010000002C19000008B5124A124B1A60124A136843F40073136000230AE0032B03D80F4A52F82310D4
:4005000000E00E490E4A42F8231001332F2BF2D90C4B1A780C4B1A70094A0C4B1A6000F0C5F800220A4B1A6008BD00BF0004FA050CED00E014ED00E0000000009104000004
:400540000080FF1FBC7600400481FF1F08ED00E00081FF1FFEE700BFF0B40022174611E050F82760F3B226F0FF0608E001EB420511F812406D78A5550132013BDBB2002B91
:40058000F4D101370F2FEBD9F0BC70470C4B1B78DBB203F007010B4A11701B09013213700322094B1A70102203F643131A702023064A1370C03213704422054B1A70704727
:4005C000CF0100496E5800404D510040985A00407658004008B50A46002101F06CF908BD38B54FF49C72274B1A80182202331A70312202331A801B2202331A70022203F2FB
:400600007A231A7008224FF040231A70032103F5007319701C4B1B78DBB21C490B701C4B1A8041F25122023B1A80002419250CE0184B1B7803F0010343EA440404F0030495
:400640004FF4F07000F074F9013D0DB1032CEFD115B90320FFF77EFF0F4B4FF480721A8007221A7000220D490A704820023108701A700222033B1A70094A137843F00303BD
:40068000137038BD8040004008010049A146004022420040254200400440004006400040A243004008B501F0FBF808BD70B572B62A4A137843F00403137000240CE02849DF
:4006C00063001A1952000A4423445B00C8589188FFF780FF0134E4B2092CF0D94FF090402049FFF739FF204A137843F0020313701032137843F0020313701C4C237843F077
:4007000040032370A2F58632513A137843F010031370174817490822FFF7C4FF164817490822FFF7BFFF164816490822FFF7BAFF154A137843F008031370144E0125357009
:40074000FFF74EFF81233370114B1D70FFF71EFF104821460E22FFF7A5FF70BDE8460040CC1800004000004803500140A04300402251004024020048425100402C02004842
:400780006251004034020048224300400048004004000840B0430040054A137843F0040313701032137843F004031370704700BFA8430040054B1A7802F0FD021A701A786B
:4007C00000F0020010431870704700BF28580040014B1870704700BF825B0040064B1B78C3F3810303F19243063393F82831DBB2024A1370704700BF285800400A46004069
:4008000008B5064B1A7802F0F3021A701A7800F00C0010431870FFF7E1FF08BD2858004008B50023054A1370013213700420FFF7E7FF0220FFF7BEFF08BD00BF2858004062
:4008400008B5074B1B7823B9FFF7EAFF0122044B1A70FFF7A1FF6420FFF7BAFF08BD00BF3C81FF1F054A137843F0080313701032137843F008031370704700BFA84300402D
:40088000054B1A7802F0FD021A701A7800F0020010431870704700BF2C580040014B1870704700BF835B0040064B1B78C3F3810303F19243063393F83831DBB2024A13706A
:4008C000704700BF2C5800400B46004008B5064B1A7802F0F3021A701A7800F00C0010431870FFF7E1FF08BD2C58004008B50023054A1370013213700420FFF7E7FF0220CA
:40090000FFF7BEFF08BD00BF2C58004008B5074B1B7823B9FFF7EAFF0122044B1A70FFF7A1FF6420FFF7BAFF08BD00BF3D81FF1F0230800803D000BF01380046FCD17047EB
:40094000EFF3108072B6704780F31088704700BF10B5044605E0084B1868FFF7E9FFA4F50044B4F5004FF6D8034B586800FB04F0FFF7DEFF10BD00BF0C81FF1F08B5034B4B
:400980001B7A03FB00F0FFF7D3FF08BD0C81FF1F014B1B685864704708ED00E04001C0B2014B1870704700BF01E400E00222014B1A60704700E100E00222014B1A607047A0
:4009C00080E100E010B50446FFF7F6FF2046FFF7DFFF0720FFF7E2FFFFF7E8FF10BD00BF7222034B1A702022013B1A70704700BF8E64004010B5FFF7A3FF0446074A13787C
:400A000043F020031370013A137843F01003137000F088F92046FFF797FF10BD9E64004008B5054B1B7823B9FFF7DAFF0122024B1A70FFF7DFFF08BD3E81FF1F084B1B783B
:400A4000DBB213F0200F06D0064A1078C0B213F01E0F02D17047002070470020704700BF6D6400404D640040014B1B681864704708ED00E04001C0B2014B1870704700BF9A
:400A800000E400E00122014B1A60704700E100E00122014B1A60704780E100E010B50446FFF7F6FF2046FFF7DFFF0720FFF7E2FFFFF7E8FF10BD00BF10B50B4C237803F0EB
:400AC0009F032370237803F0F00323702378184340F0100020700120FFF750FF237803F0EF03237010BD00BF2051004038B505460E4C237843F020032370237803F0BF03CB
:400B000023700020FFF73AFF237803F0F003237023781D4345F0100525700120FFF72EFF237803F0EF03237038BD00BF2051004070B5354B1A7802F08002D2B21A703349F4
:400B40000A7802F0F00242F00F020A7001310A7802F0F0020A7001310A7802F0F0020A701A7802F0DF021A701A7842F040021A704FF4CA760020FFF701FF234D2B7843F0D0
:400B800010032B700120FFF7F9FE214B1C78E4B22B7803F0EF032B700020FFF7EFFE04F00804E4B22B7843F010032B700120FFF7E5FE2B7803F0EF032B7014B90A20FFF799
:400BC000DDFE013E0CB1002ED4D10F4A137803F0BF031370137803F08003DBB213700232137803F0F00313700132137803F0F00343F00F0313700132137803F0F00343F0B3
:400C00000F03137070BD00BF20510040225100402151004010B50446FFF78AFF2009FFF765FF04F00F00FFF761FF10BD08B5FFF7F1FF08BD10B50446FFF77AFF2009FFF7E1
:400C40003BFF04F00F00FFF737FF10BD08B52820FFF77EFE0320FFF72FFF0520FFF778FE0320FFF729FF0F20FFF772FE0320FFF723FF0120FFF76CFE0220FFF71DFF052004
:400C8000FFF766FE0620FFF7D5FF0E20FFF7D2FF2C20FFF7CFFF0820FFF7CCFF0120FFF7C9FF0C20FFF7C6FF0320FFF7C3FF0520FFF74EFE08BD00BF08B50C20FFF7BAFFD8
:400CC0000122014B1A7008BD3F81FF1F08B5054B5B7823B9FFF7BAFF0122024B5A70FFF7EBFF08BD3F81FF1F08B5032819D8DFE800F002070D1381F08000FFF79BFF08BD31
:400D0000A1F14000C0B2FFF795FF08BDA1F16C00C0B2FFF78FFF08BDA1F12C00C0B2FFF789FF08BD054A137843F0010313701032137843F001031370704700BFA24300403E
:400D400081F0004102E000BF83F0004330B54FEA41044FEA430594EA050F08BF90EA020F1FBF54EA000C55EA020C7FEA645C7FEA655C00F0E2804FEA5454D4EB5555B8BFC7
:400D80006D420CDD2C4480EA020281EA030382EA000083EA010180EA020281EA0303362D88BF30BD11F0004F4FEA01314FF4801C4CEA113102D0404261EB410113F0004FB5
:400DC0004FEA03334CEA133302D0524263EB430394EA050F00F0A780A4F10104D5F1200E0DDB02FA0EFC22FA05F2801841F1000103FA0EF2801843FA05F359410EE0A5F123
:400E000020050EF1200E012A03FA0EFC28BF4CF0020C43FA05F3C01851EBE37101F0004507D54FF0000EDCF1000C7EEB00006EEB0101B1F5801F1BD3B1F5001F0CD349083C
:400E40005FEA30004FEA3C0C04F101044FEA445212F5800F80F09A80BCF1004F08BF5FEA500C50F1000041EB045141EA050130BD5FEA4C0C404141EB010111F4801FA4F1BE
:400E80000104E9D191F0000F04BF01460020B1FA81F308BF2033A3F10B03B3F120020CDA0C3208DD02F1140CC2F10C0201FA0CF021FA02F10CE002F11402D8BFC2F1200CCB
:400EC00001FA02F120FA0CFCDCBF41EA0C019040E41AA2BF01EB0451294330BD6FEA04041F3C1CDA0C340EDC04F11404C4F1200220FA04F001FA02F340EA030021FA04F349
:400F000045EA030130BDC4F10C04C4F1200220FA02F001FA04F340EA0300294630BD21FA04F0294630BD94F0000F83F4801306BF81F480110134013D4EE77FEA645C18BFF3
:400F40007FEA655C29D094EA050F08BF90EA020F05D054EA000C04BF1946104630BD91EA030F1EBF0021002030BD5FEA545C05D14000494128BF41F0004130BD14F58004E2
:400F80003CBF01F5801130BD01F0004545F0FE4141F470014FF0000030BD7FEA645C1ABF194610467FEA655C1CBF0B46024650EA013406BF52EA033591EA030F41F4002166
:400FC00030BD00BF90F0000F04BF0021704730B54FF4806404F132044FF000054FF0000150E700BF90F0000F04BF0021704730B54FF4806404F1320410F0004548BF40423B
:401000004FF000013EE700BF42004FEAE2014FEA31014FEA02701FBF12F07F4393F07F4F81F06051704792F0000F14BF93F07F4F704730B54FF4607401F0004521F000415C
:4010400020E700BF50EA010208BF704730B54FF000050AE050EA010208BF704730B511F0004502D5404261EB41014FF4806404F132045FEA915C3FF4DCAE4FF003025FEA3D
:40108000DC0C18BF03325FEADC0C18BF033202EBDC02C2F1200300FA03FC20FA02F001FA03FE40EA0E0021FA02F11444C1E600BF70B54FF0FF0C4CF4E06C1CEA11541DBF17
:4010C0001CEA135594EA0C0F95EA0C0F00F0DEF82C4481EA030621EA4C5123EA4C5350EA013518BF52EA033541F4801143F4801338D0A0FB02CE4FF00005E1FB02E506F096
:401100000042E0FB03E54FF00006E1FB03569CF0000F18BF4EF0010EA4F1FF04B6F5007F64F5407404D25FEA4E0E6D4146EB060642EAC62141EA55514FEAC52040EA5E5062
:401140004FEACE2EB4F1FD0C88BFBCF5E06F1ED8BEF1004F08BF5FEA500E50F1000041EB045170BD06F0004646EA010140EA020081EA0301B4EB5C04C2BFD4EB0C0541EA70
:40118000045170BD41F480114FF0000E013C00F3AB8014F1360FDEBF002001F0004170BDC4F10004203C35DA0C341BDC04F11404C4F1200500FA05F320FA04F001FA05F2A5
:4011C00040EA020001F0004221F0004110EBD37021FA04F642EB06015EEA430E08BF20EAD37070BDC4F10C04C4F1200500FA04F320FA05F001FA04F240EA020001F00041EF
:4012000010EBD37041F100015EEA430E08BF20EAD37070BDC4F1200500FA05F24EEA020E20FA04F301FA05F243EA020321FA04F001F0004121FA04F220EA020000EBD3708F
:401240005EEA430E08BF20EAD37070BD94F0000F0FD101F00046400041EB010111F4801F08BF013CF7D041EA060195F0000F18BF704703F00046520043EB030313F4801F54
:4012800008BF013DF7D043EA0603704794EA0C0F0CEA135518BF95EA0C0F0CD050EA410618BF52EA4306D1D181EA030101F000414FF0000070BD50EA410606BF10461946AA
:4012C00052EA430619D094EA0C0F02D150EA013613D195EA0C0F05D152EA03361CBF104619460AD181EA030101F0004141F0FE4141F470014FF0000070BD41F0FE4141F4A7
:40130000780170BD70B54FF0FF0C4CF4E06C1CEA11541DBF1CEA135594EA0C0F95EA0C0F00F0A7F8A4EB050481EA030E52EA03354FEA013100F088804FEA03334FF0805527
:4013400045EA131343EA12634FEA022245EA111545EA10654FEA00260EF000419D4208BF964244F1FD0404F5407402D25B084FEA3202B61A65EB03055B084FEA32024FF442
:4013800080104FF4002CB6EB020E75EB030E22BFB61A754640EA0C005B084FEA3202B6EB020E75EB030E22BFB61A754640EA5C005B084FEA3202B6EB020E75EB030E22BFB3
:4013C000B61A754640EA9C005B084FEA3202B6EB020E75EB030E22BFB61A754640EADC0055EA060E18D04FEA051545EA16754FEA06164FEAC30343EA52734FEAC2025FEA64
:401400001C1CC0D111F4801F0BD141EA00014FF000004FF0004CB6E711F4801F04BF01430020B4F1FD0C88BFBCF5E06F3FF6AFAEB5EB030C04BFB6EB020C5FEA500C50F177
:40144000000041EB045170BD0EF0004E4EEA113114EB5C04C2BFD4EB0C0541EA045170BD41F480114FF0000E013C90E645EA060E8DE60CEA135594EA0C0F08BF95EA0C0FC7
:401480003FF43BAF94EA0C0F0AD150EA01347FF434AF95EA0C0F7FF425AF104619462CE795EA0C0F06D152EA03353FF4FDAE1046194622E750EA410618BF52EA43067FF45C
:4014C000C5AE50EA41047FF40DAF52EA43057FF4EBAE12E74FEA4102B2F1E04324BFB3F5001CDCF1FE5C0DD901F0004C4FEAC0024CEA5070B2F1004F40EB830008BF20F0A7
:401500000100704711F0804F21D113F13872BCBF01F00040704741F480114FEA5252C2F11802C2F1200C10FA0CF320FA02F018BF40F001004FEAC1234FEAD32303FA0CFC63
:4015400040EA0C0023FA02F34FEA4303CCE77FEA625307D150EA01331EBF4FF0FE4040F44000704701F0004040F0FE4040F40000704700BF4FF0FF0C1CEAD0521EBF1CEA6A
:40158000D15392EA0C0F93EA0C0F6FD01A4480EA010C400218BF5FEA41211ED04FF0006343EA501043EA5111A0FB01310CF00040B1F5000F3EBF490041EAD3715B0040EA5C
:4015C000010062F17F02FD2A1DD8B3F1004F40EBC25008BF20F00100704790F0000F0CF0004C08BF49024CEA502040EA51207F3AC2BFD2F1FF0340EAC250704740F40000EB
:401600004FF00003013A5DDC12F1190FDCBF00F000407047C2F10002410021FA02F1C2F1200200FA02FC5FEA310040F1000053EA4C0308BF20EADC70704792F0000F00F0EA
:40164000004C02BF400010F4000F013AF9D040EA0C0093F0000F01F0004C02BF490011F4000F013BF9D041EA0C018FE70CEAD15392EA0C0F18BF93EA0C0F0AD030F0004CCA
:4016800018BF31F0004CD8D180EA010000F00040704790F0000F17BF90F0004F084691F0000F91F0004F14D092EA0C0F01D142020FD193EA0C0F03D14B0218BF084608D1E1
:4016C00080EA010000F0004040F0FE4040F40000704740F0FE4040F4400070474FF0FF0C1CEAD0521EBF1CEAD15392EA0C0F93EA0C0F69D0A2EB030280EA010C49024FEAEF
:40170000402037D04FF0805343EA111143EA10130CF000408B4238BF5B0042F17D024FF4000C8B4224BF5B1A40EA0C00B3EB510F24BFA3EB510340EA5C00B3EB910F24BF70
:40174000A3EB910340EA9C00B3EBD10F24BFA3EBD10340EADC001B0118BF5FEA1C1CE0D1FD2A3FF650AF8B4240EBC25008BF20F0010070470CF0004C4CEA50207F32C2BF7F
:40178000D2F1FF0340EAC250704740F400004FF00003013A37E792F0000F00F0004C02BF400010F4000F013AF9D040EA0C0093F0000F01F0004C02BF490011F4000F013B5E
:4017C000F9D041EA0C0195E70CEAD15392EA0C0F08D142027FF47DAF93EA0C0F7FF470AF084676E793EA0C0F04D14B023FF44CAF08466EE730F0004C18BF31F0004CCAD154
:4018000030F000427FF45CAF31F000437FF43CAF5FE700BF42000ED2B2F1FE4F0BD34FF09E03B3EB126209D44FEA002343F0004323FA02F070474FF00000704712F1610F41
:4018400001D1420202D14FF0FF3070474FF00000704700BF0E4B70B51E460E4C0025E41AA410A54204D056F8253098470135F8E700F04AF8084B094C1E46E41AA41000252B
:40188000A54204D056F8253098470135F8E770BD1419000014190000141900001C19000010B5431E0A44914204D011F8014B03F8014FF8E710BD03460244934202D003F855
:4018C000011BFAE77047000000000000005100402000305100401000505100401000C05100401000F0510040100000000140001000140140000800400140000A004C014009
:401900000002005001402000F8B500BFF8BC08BC9E4670474D000000E1040000F8B500BFF8BC08BC9E46704729000000401900000881FF1F18000000381A00000000000031
:40194000000000000000E02EC05D00001800000000366E0100000000000000000000000000000000000000000000000000000000000000000000000000000000000000007F
:401980000000000000000000000000000000000000000000000000000000000000000000000000000000000000000000000000000000000000000000000000000000000027
:4019C00000000000000000000000000000000000000000000000000000000000000000000000000000000000000000000000000000000000000000000000000000000000E7
:401A000000000000000000000000000000000000000000000000000000000000000000000000000000000000000000000000000000000000000000000000000000000000A6
:401A40000000000000000000000000000000000000000000000000000000000000000000000000000000000000000000000000000000000000000000000000000000000066
:020000040003F7
:0200000480007A
:400000000152004002640040010301403F0C0140320D01403B0E01402F0F014003400140044101400142014001430140024401400245014003480140025001400151014059
:4000400034408D388E72E60285188620880189088A0E8F04900492119302951D9807991C9B019D10A220A407A505A718AB02AC02AD18AE11AF05B020B101B407B502B61891
:40008000B71CB902BB08BE41BF10C024C103C205C401C50CC70EC811C9FFCAFFCBFFCC62CDA0CEF0CF41D00CD418D604D804D904DA04DB04DF01E640E702E910EA30EB1095
:4000C000ED10EE10EF1201280A040B801002130A180119201B01200221082202230629802B2830803128320238684041410843214801490853085A02634687408D208E40CA
:40010000902892069380968099809B09A082A120A320A508B002C006C20AC40DCA0ECC0FCE0ED00FD208D601D80D0110022304330508060C080209DF0C1F0E200F04100320
:4001400011441320143F1580181C191C1A231BC21FC32008211C23C1240425C72718280C29182C012DC0301031C0340F351F362C37203AA03B203E0156025713580459040F
:400180005B045F018501900191019202950198039C029E01A403B603B701D804D904DF01018002800328080109280A800B100C020E0610821324170819811BA01E021F4039
:4001C000216022012680270128012A202BA03002312032803308370A39803A023B143E0459016A046B0A7094722273248E018F08C00FC2DEC42FCA0FCCCFCE4FD60132206A
:400200003780CC3086209F80A620E6409F809F800920C202B120EE0123809F80C84000010E01000F007F7F0000000000000000000000030040000000000000000000000045
:40024000000000000000000000000000000000000000000000000000000000000000000000000000000000000000000000000000000000000000000000000000000000007E
:40028000000000000000000000000000000000000000000000000000000000000000000000000000000000000000000000000000000000000000000000000000000000003E
:4002C00000000000000000000000000000000000000000000000000000000000000000000000000000000000000000000000000000000000000000000000000000000000FE
:4003000000000000000000000000000000000000000000000000000000000000000000000000000000000000000000000000000000000000000000000000000000000000BD
:0200000490006A
:0400000000004005B7
:0200000490105A
:04000000BC90ACAF55
:0200000490303A
:02000000920369
:0200000490402A
:4000000000000000000000000000000000000000000000000000000000000000000000000000000000000000000000000000000000000000000000000000000000000000C0
:400040000000000000000000000000000000000000000000000000000000000000000000000000000000000000000000000000000000000000000000000000000000000080
:400080000000000000000000000000000000000000000000000000000000000000000000000000000000000000000000000000000000000000000000000000000000000040
:4000C0000000000000000000000000000000000000000000000000000000000000000000000000000000000000000000000000000000000000000000000000000000000000
:0200000490501A
:0C00000000012E12306900012E1CC26CA1
:00000001FF