:4000000000800020110000005D0300005D03000008B5044B1A6803F53F5302331A6000F09FF900BFFA46004010B5054C237833B9044B13B10448AFF300800123237010BD1F
:400040002081FF1F00000000A42D0000084B10B51BB108480849AFF300800848036803B910BD074B002BFBD0BDE81040184700BF00000000A42D00002481FF1F0881FF1F6F
:400080000000000008B500F041FC0A2801D000F035FD08BD08B500F039FB00F09DFB00F07DFD012000F02EFD0020014600F084FD00F0FEFB00F01CFC034800F0EBFB034828
:4000C00000F054FC08BD00BF150200008500000010B500240BE0084B185D00F0DFFA074B185D00F041FB032000F0B0FB0134044B1B689C42EFDB10BD4C81FF1F50B1FF1F04
:400100004C91FF1F2DE9F04D82B03948002303603849394A00F0AEF8384A1368013313603C2B02D10022354B1A60002558E0DFF8C080D8F80040680002F056FC304902F009
:40014000A7FC4FF0725102F0A3FC02F05DF882468B4600F05DFD06460F46284B1868400002F042FC264902F093FC264902F044FD02F04AF8CDE9000100F04AFD02460B46CE
:400180003046394601F0E2FE00221F4B02F090F800221E4B01F0DAFE02F04CFB154B18555046594600F07CFD06460F46DDE9000100F076FD02460B463046394601F0C6FE6D
:4001C0000022114B02F074F80022104B01F0BEFE02F030FB084B18550134C8F800400135402DA4DD01220A4B1A7002B0BDE8F08D4C91FF1F5091FF1F50A1FF1F3C81FF1F09
:40020000DB0F49400000704200004040000060404881FF1F08B5FFF775FF08BD08B562B6FFF738FFFFF76EFF0C4B1B78012B12D109E00B4AD15C0B4AD1540B4AD15C0B4A8C
:40024000D154013300E00023094A12689342F0DB0022024B1A70FFF73BFFE5E74881FF1F5091FF1F4C81FF1F50A1FF1F50B1FF1F4C91FF1F70B4002310E00668C3EB03254B
:400280002C46002D01DA05F11F0464118C5504680025155504680134046001331F2BECDD002417E00568642303FB04F3002B00DA1F336FEA63134B550668C4EB04252B468D
:4002C000002D01DA05F11F035B11935503680133036001341F2CE5DD002414E00668C4EBC405C4EBC5052B46002D01DA05F11F035B11C3F19B038B550368FF25D55403687D
:400300000133036001341F2CE8DD002419E00568642303FB04F3002B00DA1F335B11C3F164034B550668C4EB04252B46002D01DA05F11F036FEA63139355036801330360CD
:4003400001341F2CE3DD046800230B550168535403680133036070BC704700BFFEE700BF08B5104E104D16E029686B68AC68002204E051F8040B43F8040B0432A242F8D185
:40038000E868002203E0002143F8041B04328242F9D11035013E002EE6D102F0C9FCFFF73DFFFEE701000000E42F000008B5124A124B1A60124A136843F400731360002357
:4003C0000AE0032B03D80F4A52F8231000E00E490E4A42F8231001332F2BF2D90C4B1A780C4B1A70094A0C4B1A6000F0C5F800220A4B1A6008BD00BF0004FA050CED00E0F3
:4004000014ED00E0000000005D0300000080FF1FBC7600400481FF1F08ED00E00081FF1FFEE700BFF0B40022174611E050F82760F3B226F0FF0608E001EB420511F8124097
:400440006D78A5550132013BDBB2002BF4D101370F2FEBD9F0BC70470C4B1B78DBB203F007010B4A11701B09013213700322094B1A70102203F643131A702023064A1370CE
:40048000C03213704422054B1A707047CF0100496E5800404D510040985A00407658004008B50A46002102F074FC08BD38B54FF49C72274B1A80182202331A703122023373
:4004C0001A801B2202331A70022203F27A231A7008224FF040231A70032103F5007319701C4B1B78DBB21C490B701C4B1A8041F25122023B1A80002419250CE0184B1B788F
:4005000003F0010343EA440404F003044FF4F07000F076F9013D0DB1032CEFD115B90320FFF77EFF0F4B4FF480721A8007221A7000220D490A704820023108701A70022274
:40054000033B1A70094A137843F00303137038BD8040004008010049A146004022420040254200400440004006400040A243004008B502F003FC08BD70B572B62A4A137872
:4005800043F00403137000240CE0284963001A1952000A4423445B00C8589188FFF780FF0134E4B2092CF0D94FF090402049FFF739FF204A137843F002031370103213786B
:4005C00043F0020313701C4C237843F040032370A2F58632513A137843F010031370174817490822FFF7C4FF164817490822FFF7BFFF164816490822FFF7BAFF154A137848
:4006000043F008031370144E01253570FFF74EFF81233370114B1D70FFF71EFF104821460E22FFF7A5FF70BDE8460040A82D00004000004803500140A0430040225100405B
:4006400024020048425100402C0200486251004034020048224300400048004004000840B0430040054A137843F0040313701032137843F004031370704700BFA8430040E4
:40068000054B1A7802F0FD021A701A7800F0020010431870704700BF28580040014B1870704700BF825B0040064B1B78C3F3810303F19243063393F82831DBB2024A137081
:4006C000704700BF285800400A46004008B5064B1A7802F0F3021A701A7800F00C0010431870FFF7E1FF08BD2858004010B50024054B1C7001331C700420FFF7E7FF204674
:40070000FFF7BEFF10BD00BF2858004008B5074B1B7823B9FFF7EAFF0122044B1A70FFF7A1FF6420FFF7BAFF08BD00BF4081FF1F054A137843F0080313701032137843F09A
:4007400008031370704700BFA8430040054B1A7802F0FD021A701A7800F0020010431870704700BF2C580040014B1870704700BF835B0040064B1B78C3F3810303F1924305
:40078000063393F83831DBB2024A1370704700BF2C5800400B46004008B5064B1A7802F0F3021A701A7800F00C0010431870FFF7E1FF08BD2C58004010B50024054B1C7047
:4007C00001331C700420FFF7E7FF2046FFF7BEFF10BD00BF2C58004008B5074B1B7823B9FFF7EAFF0122044B1A70FFF7A1FF6420FFF7BAFF08BD00BF4181FF1F000000004A
:400800000230800803D000BF01380046FCD17047EFF3108072B6704780F31088704700BF10B5044605E0084B1868FFF7E9FFA4F50044B4F5004FF6D8034B586800FB04F052
:40084000FFF7DEFF10BD00BF0C81FF1F08B5034B1B7A03FB00F0FFF7D3FF08BD0C81FF1F014B1B685864704708ED00E04001C0B2014B1870704700BF01E400E00222014B5F
:400880001A60704700E100E00222014B1A60704780E100E010B50446FFF7F6FF2046FFF7DFFF0720FFF7E2FFFFF7E8FF10BD00BF7222034B1A702022013B1A70704700BFDF
:4008C0008E64004010B5FFF7A3FF0446074A137843F020031370013A137843F01003137000F088F92046FFF797FF10BD9E64004008B5054B1B7823B9FFF7DAFF0122024BAE
:400900001A70FFF7DFFF08BD4281FF1F084B1B78DBB213F0200F06D0064A1078C0B213F01E0F02D17047002070470020704700BF6D6400404D640040014B1B6818647047C3
:4009400008ED00E04001C0B2014B1870704700BF00E400E00122014B1A60704700E100E00122014B1A60704780E100E010B50446FFF7F6FF2046FFF7DFFF0720FFF7E2FF6D
:40098000FFF7E8FF10BD00BF10B50B4C237803F09F032370237803F0F00323702378184340F0100020700120FFF750FF237803F0EF03237010BD00BF2051004038B5054627
:4009C0000E4C237843F020032370237803F0BF0323700020FFF73AFF237803F0F003237023781D4345F0100525700120FFF72EFF237803F0EF03237038BD00BF205100403D
:400A000070B5354B1A7802F08002D2B21A7033490A7802F0F00242F00F020A7001310A7802F0F0020A7001310A7802F0F0020A701A7802F0DF021A701A7842F040021A70BB
:400A40004FF4CA760020FFF701FF234D2B7843F010032B700120FFF7F9FE214B1C78E4B22B7803F0EF032B700020FFF7EFFE04F00804E4B22B7843F010032B700120FFF7EE
:400A8000E5FE2B7803F0EF032B7014B90A20FFF7DDFE013E0CB1002ED4D10F4A137803F0BF031370137803F08003DBB213700232137803F0F00313700132137803F0F003A0
:400AC00043F00F0313700132137803F0F00343F00F03137070BD00BF20510040225100402151004010B50446FFF78AFF2009FFF765FF04F00F00FFF761FF10BD08B5FFF7D6
:400B0000F1FF08BD10B50446FFF77AFF2009FFF73BFF04F00F00FFF737FF10BD08B52820FFF77EFE0320FFF72FFF0520FFF778FE0320FFF729FF0F20FFF772FE0320FFF7EF
:400B400023FF0120FFF76CFE0220FFF71DFF0520FFF766FE0620FFF7D5FF0E20FFF7D2FF2C20FFF7CFFF0820FFF7CCFF0120FFF7C9FF0C20FFF7C6FF0320FFF7C3FF05207B
:400B8000FFF74EFE08BD00BF08B50C20FFF7BAFF0122014B1A7008BD4381FF1F08B5054B5B7823B9FFF7BAFF0122024B5A70FFF7EBFF08BD4381FF1F08B5032819D8DFE86B
:400BC00000F002070D1381F08000FFF79BFF08BDA1F14000C0B2FFF795FF08BDA1F16C00C0B2FFF78FFF08BDA1F12C00C0B2FFF789FF08BD054A137843F001031370103201
:400C0000137843F001031370704700BFA243004030B5214A21F00043934287B01BDD1F4A934205DD02460B4601F08EF907B030BD02AA00F081F800F0030001281AD0022812
:400C40000FD008B3DDE9020101230093DDE9042300F0AEFFEAE70022002300F081FA07B030BDDDE90201DDE9042300F079FA01F10041DBE70090DDE90423DDE9020100F067
:400C800097FF01F10041D1E7DDE90201DDE9042300F066FACAE700BFFB21E93FFFFFEF7F30B5224A21F00043934287B01BDD204A934205DD02460B4601F046F907B030BD56
:400CC00002AA00F039F800F0030001281ED0022811D010B3DDE90201DDE9042300F040FA01F10041EAE7002300930022002300F05FFF07B030BD01230093DDE90201DDE938
:400D0000042300F055FF01F10041D7E7DDE90201DDE9042300F024FAD0E70124DDE90201DDE90423009400F043FFC7E7FB21E93FFFFFEF7F000000002DE9F04F924C21F099
:400D40000047A7428FB00E467FDD14468F4A974226DC83A3D3E90023002940F39D8101F0F3F88B4B80469F42894600F083807EA3D3E9002301F0E8F802460B464046C4E90F
:400D80000023494601F0E0F877A3D3E9002301F0DBF80125C4E9020128460FB0BDE8F08F7C4A974240F383807B4A974258DC3D15A5F21645A7EB05518B46824601F012FD68
:400DC00001F010FA8046894642464B4650465946CDE9088901F0B8F80022704B01F068FA8B46824601F0FEFC01F0FCF98046894642464B4650465946CDE90A8901F0A4F8DA
:400E00000022664B01F054FA00220023CDE90C0101F0B6FC002800F06781002340464946002201F0ADFC002814BF012302235C480221019000912A4608A8214600F0B4FAAF
:400E4000002EC0F24781054606E0C2E9000100250024C2E90245002528460FB0BDE8F08F02460B4601F070F80025C4E90201C4E90001F1E73EA3D3E9002301F065F83EA300
:400E8000D3E9002306460F4601F05EF802460B463046C4E90023394601F056F836A3D3E9002301F051F80125C4E90201D4E700F037FF33A3D3E900238046894601F0F8F9F9
:400EC0000022384B01F042F801F08CFC054601F089F923A3D3E90023CDE9040101F0E8F902460B464046494601F02EF81EA3D3E9002382468B46DDE9040101F0D9F91F2DE1
:400F0000CDE902015046594650DC274B6A1E53F82230BB424AD0DDE9022301F015F802460B4681468846C4E900234A4643465046594601F009F8DDE9022301F005F80246A1
:400F40000B46002EC4E9022386DA4A4608F1004301F1004184E80C00E160A0606D427BE700004054FB21F93F3163621A61B4D03D0000601A61B4D03D7370032E8A19A33BAC
:400F800083C8C96D305FE43FFB21E93F7BD90240FB21F93FFB213941FFFFEF7F00007041642E00000000E03FE42D0000DDE9022300F0CAFF88463F15C8F30A53FB1A102B2D
:400FC0008146C4E90001B0DD59A3D3E90023DDE9040101F06DF98046894642464B465046594600F0B1FFCDE90601DDE906235046594600F0A9FF42464B4600F0A5FF4EA358
:40100000D3E9002380468946DDE9040101F050F942464B4600F098FFCDE90201DDE90223DDE9060100F090FF0B4602468846C1F30A517F1A312F8146C4E9002374DD40A36D
:40104000D3E90023DDE9040101F032F980468946DDE9060142464B4600F076FF82468B46DDE9060152465B4600F06EFF42464B4600F06AFF34A3D3E9002380468946DDE94B
:40108000040101F015F942464B4600F05DFFCDE90201504659463EE700F058FF2E4B80469F42894622D02AA3D3E9002300F04EFF02460B464046C4E90023494600F044FFF2
:4010C00023A3D3E9002300F041FF4FF0FF35C4E90201C1E66268E36802F1004203F1004345426260E360B7E60323A0E610A3D3E9002300F02BFF10A3D3E9002306460F461C
:4011000000F024FF02460B463046C4E90023394600F01AFF08A3D3E9002300F017FF4FF0FF35C4E9020197E6DDE906ABFDE600BF0000601A61B4D03D7370032E8A19A33BBB
:401140000000002E8A19A33BC14920259A837B393163621A61B4D03DFB21F93FAFF300802DE9F04F21F00047B7F1795F85B00C4692469B4605466BDA01F034FB002800F0C3
:40118000E7802A4623462846214601F091F874A3D3E900238046894601F08AF872A3D3E9002300F0D3FE42464B4601F081F870A3D3E9002300F0C8FE42464B4601F078F848
:4011C0006DA3D3E9002300F0C1FE42464B4601F06FF86BA3D3E9002300F0B6FE42464B4601F066F868A3D3E9002300F0AFFE42464B4601F05DF8CDE9000140464946002213
:40120000634B01F055F8DDE9002306460F464046494601F04DF85246804689465B462846214601F045F802460B464046494600F08BFE02460B463046394600F085FE0246AC
:401240000B460020534900F07FFE05B0BDE8F08F02460B4601F02CF841A3D3E900238046894601F025F840A3D3E9002300F06EFE42464B4601F01CF83DA3D3E9002300F01C
:4012800063FE42464B4601F013F83BA3D3E9002300F05CFE42464B4601F00AF838A3D3E9002300F051FE42464B4601F001F836A3D3E9002300F04AFE4B46424600F0F8FFB9
:4012C000354BCDE900019F4297DD344B00229F4238DCA7F5001300202E4916461F4600F033FECDE90201404649460022284B00F0DFFF32463B4600F027FEDDE90023064630
:401300000F464046494600F0D3FF5246804689465B462846214600F0CBFF02460B464046494600F011FE02460B463046394600F00BFE02460B46DDE9020100F005FE05B0E6
:40134000BDE8F08F164B0026CDE90223154FCAE71049002005B0BDE8F08F00BFAFF30080D43888BEE9FAA8BDC4B1B4BD9EEE213EAD529C804F7E923E9015CB19A001FA3E1A
:401380007751C1166CC1563F4C5555555555A53F0000E03F0000F03F3233D33F0000E93F0000E73F0000D23F2DE9F04F9E467E4DD41E85FB0465E417C4EBA504ADF51D7D61
:4013C00024EAE4742546A69E0D940C93E343774C03EB430354F8264002EBC303274609940EF1FF3426460394F41904900A910893A5EB060516D42C44013422AEA79F08E0D8
:4014000057F8250000F0EEFE0135A542E6E9020108D0002DF4DA013500200021A542E6E90201F6D1099B002B31DB099A0C9B74A901EBC20BC3EB4373039A24A9DB0001EB13
:40144000C20800930DF5E479039B002BC0F297814446049B0026A3F1080A009B002708EB0305FAE9022374E8020100F021FF02460B463046394600F069FDAC4206460F4681
:40148000EFD1E9E90267D94508F10808DCD1099B10A99B4603F18043013B9B001A1D0A440B440F920E934FEACB039CA91A460693BBF1000F0B4453E9284528DD0DF5E87A1A
:4014C0000AEB02060FAF0022394B2046294600F0EFFE01F087F900F085FE0022354B8046894600F0E5FE02460B462046294600F02BFD01F077F976E9022347F8040F49469F
:40150000404600F023FD564504460D46DBD1DDF82090204629464A4600F092FC00224FF07F5304460D4600F0C3FE00F0FDFB0022214B00F0BDFE02460B462046294600F0C9
:4015400003FD04460D4601F04DF9804600F04AFE02460B46204629464C4600F0F5FC002C06460F4640F3F1800BF1FF3110AB53F82130C9F1180043FA00F202FA00F55D1B5A
:4015800010A8C9F1170340F8215090441D41002D3FDDBBF1000F08F1010840F38482002214460FA912E000BFABAAAA2A6C2F00000000703E0000704100002040C3F1807079
:4015C0000BB108600124013293450DDD51F8043F002CF3D0C3F1FF13013203F57F4393450B604FF00104F1DC089B002B0EDD012B00F0B380022B09D10BF1FF3210AB53F8E9
:40160000223010A9C3F3150341F82230022D00F08380304639460022002301F0B1F8002800F0C980099B0BF1FF3A53450DDC10AB0F9803EB8B03002253F8041D834242EA38
:401640000102F9D1002A40F01482099B10AA013B52F82330002B40F024820E9A012352F8041D01330029FAD05B441A460B930BF1010393424DDC0D9A4FF0000803EB020995
:401680000B9A0C9B09F180495B44CBEB020BA79A09F1FF3902EB890200924FEACB02DB00059224AA02EB030B0793069B74AA02EB030A009B002653F8040F0027009300F0DF
:4016C00091FD039BEBE80201002B1BDB079B03EB0804069B08EB030524AB1C441D44049BA3F10809F9E9022374E8020100F0E0FD02460B463046394600F028FCAC420646AC
:401700000F46EFD1059B08F108089845EAE90267CFD1DDF82CB0C6E632463B460020BF4900F012FC06460F46002C3FF472AF089A0020BA4900F084FB02460B4630463946D3
:4017400000F002FC06460F4663E711D10BF1FF3310AA52F82350ED1519E70BF1FF3210AB53F8223010A9C3F3160341F822304DE70022AB4B01F022F858B9054649E7002666
:401780000027E9E90267D94508F108087FF45CAE7DE6BBF1000F08F10108C8BF02253FF7FEAE32463B4600209C4900F0CDFB022506460F462DE7089B30465A423946039515
:4017C000CDF8148000F03CFB0022964B04460D4600F0F4FF002800F0E1810022924B2046294600F065FD00F0FDFF064600F0FAFC00228C4B00F05CFD0B4602462946204678
:4018000000F0A2FB00F0EEFF089B0BF1010A1833089310AB43F82B0043F82A60089A00207E4900F00DFBBAF1000F04460D46C0F2CA800AF101034FEAC30874AF10AA009381
:4018400002EB830907EB080659F8040D00F0CAFC22462B4600F02CFD002266E90201724B2046294600F024FDBE4204460D46EBD1A8F1080806EB08039B460DF59879CDF817
:4018800018A0DDF824A04FF00008CDF81090BAF1000FC0F29580B8F1000FC0F29180DFF88C915D4600260027002401E0444510DCF9E90223F5E8020100F0FAFC02460B466B
:4018C0003046394600F042FB0134A24506460F46ECDA049BABF1080B03EBC803C3E90067009B08F101089845D1D1A69BDDF818A0DDF81090032B3BD8DFE813F0410004007A
:401900000400D70000273E46009B09EBC304384674E90223314600F019FB4C4507460E46F5D1039B002B00F08B80D9E900010A9D334606F100463A466E602F6000F004FBA8
:40194000BAF1000F03460CDD01261C46F9E90223204600F0FBFA0136B2450346F5DA039A0AB101F100411C460D460A9BC3E90245059B03F007000DF51D7DBDE8F08F002305
:401980001946009A09EBC2091C4679E90223204600F0DCFA0AF1FF3ABAF1FF3F0346F3D1039A0AB101F100411C460D460A9BC3E90045059B03F007000DF51D7DBDE8F08F00
:4019C0000026002785E7A69B032BD1D8DFE803F04E3030020DF59879039A00231E46002A00F0C8800A9FD9F80800D9F80440D9F80C203B61059BD9F8001006F1004604F130
:401A0000004402F10042B86003F007007E617C60FA6039600DF51D7DBDE8F08F0000F03F0000E03F000070410000703E782F0000039B00273E460DF59879002B7FF475AF3B
:401A4000D9E9000135463C4633460A9E3A46C6E9004500F079FABAF1000F03463FF774AF1C460D460A9BC3E9024581E70023194696E7089A10AB53F82A30183A0395CDF8ED
:401A800014800892002B7FF4C9AE10AB03EB8A0353F8041D0AF1FF3A183A0029F8D00892BCE60123E0E500249EE5BAF1000F93DD4FEACA0809EB08039B46D3E900677BE962
:401AC000022330463946CDE9002300F03FFA04460D46DDE9000122462B4600F035FA02460B463046394600F031FACB4526462F46CBE90201CBE90045E1D1BAF1010F7FF741
:401B00006BAF09EB08039A46D3E900670DF59C7B7AE902231046194632463B46CDE9000100F014FA04460D46DDE9000122462B4600F00AFA32463B4600F008FADA452646DE
:401B40002F46CAE90201CAE90045E1D100231E4608F108044C4450AD184674E90223314600F0F4F9AC4203460E46F5D1039A002A7FF438AFD9E90045D9E9028918463146A8
:401B80000A9A059BC2E9040103F00700C2E90045C2E902890DF51D7DBDE8F08F2046294600F020FE10ABDA4643F82B0036E600BF2DE9F04F21F00046B6F1795F85B00C46A0
:401BC00090469946054604DA00F00CFE002800F083802A4623462846214600F069FB2A46234606460F4600F063FB3FA3D3E9002382468B463046394600F05AFB3CA3D3E9F9
:401C0000002300F0A1F932463B4600F051FB3AA3D3E9002300F09AF932463B4600F048FB37A3D3E9002300F08FF932463B4600F03FFB35A3D3E9002300F088F90E9BCDE97C
:401C400000019BB3404649460022334B00F030FBDDE90023CDE902015046594600F028FB02460B46DDE9020100F06EF932463B4600F01EFB42464B4600F066F924A3D3E9B5
:401C8000002306460F465046594600F011FB02460B463046394600F059F902460B462846214600F051F905B0BDE8F08FDDE900233046394600F0FCFA15A3D3E9002300F093
:401CC00043F952465B4600F0F3FA2A46234600F03DF905B0BDE8F08F2846214605B0BDE8F08F00BFAFF300807CD5CF5A3AD9E53DEB9C2B8AE6E55A3E7DFEB157E31DC73E55
:401D0000D561C119A0012A3FA6F810111111813F495555555555C53F0000E03FAFF3008021F00041704700BF2DE9F047C1F30A58A8F2FF36132E0B4604460D460246894671
:401D400007461DDC002E40DBDFF8F08048FA06F808EA010E5EEA020217D035A3D3E9002300F0F4F80022002300F032FD20B1002D40DB29EA0805002738462946BDE8F087B9
:401D8000332E06DDB6F5806F2FD020461946BDE8F087A8F213424FF0FF3A2AFA02FA1AEA000FF2D022A3D3E9002300F0CFF80022002300F00DFD0028DED0002D1FDB4D46DF
:401DC00027EA0A0738462946D8E719A3D3E9002300F0BCF80022002300F0FAFC0028CBD0002D1ADB00273D46C6E702460B4600F0ADF8CCE74FF4801333419944B9E7142E85
:401E000008D0C8F5866808F10308012303FA08F31F19D4D309F10109D1E725F00042064B224318BF1D460027A6E700BFAFF300809C7500883CE4377E0000F0BFFFFF0F005E
:401E4000F8B5C1F30A5604460D460B46174616BB21F00043034332D00022314B00F028FA304A044697420D460B4637DB40F2FE72C1F30A56363E3E44964215DD24A1D1E9F1
:401E8000000122462B4600F053F821A3D3E9002300F00EFAF8BD40F2FF72964224D040F2FE723E449642E9DC002E09DD23F0FF4323F4E00343EA065520462946F8BDF8BD63
:401EC00016F1350F15DA4CF250339F42D6DC12A1D1E9000122462B4600F02AF80EA3D3E9002300F0E5F9F8BD02460B4600F02EF8F8BD23F0FF4323F4E003363643EA065541
:401F0000204629460022084B00F0D2F9F8BD00BF9C7500883CE4377E59F3F8C21F6EA50100005043B03CFFFF0000903CAFF3008003F0004321F0004243EA0201704700BFE7
:401F400081F0004102E000BF83F0004330B54FEA41044FEA430594EA050F08BF90EA020F1FBF54EA000C55EA020C7FEA645C7FEA655C00F0E2804FEA5454D4EB5555B8BFB5
:401F80006D420CDD2C4480EA020281EA030382EA000083EA010180EA020281EA0303362D88BF30BD11F0004F4FEA01314FF4801C4CEA113102D0404261EB410113F0004FA3
:401FC0004FEA03334CEA133302D0524263EB430394EA050F00F0A780A4F10104D5F1200E0DDB02FA0EFC22FA05F2801841F1000103FA0EF2801843FA05F359410EE0A5F111
:4020000020050EF1200E012A03FA0EFC28BF4CF0020C43FA05F3C01851EBE37101F0004507D54FF0000EDCF1000C7EEB00006EEB0101B1F5801F1BD3B1F5001F0CD349082A
:402040005FEA30004FEA3C0C04F101044FEA445212F5800F80F09A80BCF1004F08BF5FEA500C50F1000041EB045141EA050130BD5FEA4C0C404141EB010111F4801FA4F1AC
:402080000104E9D191F0000F04BF01460020B1FA81F308BF2033A3F10B03B3F120020CDA0C3208DD02F1140CC2F10C0201FA0CF021FA02F10CE002F11402D8BFC2F1200CB9
:4020C00001FA02F120FA0CFCDCBF41EA0C019040E41AA2BF01EB0451294330BD6FEA04041F3C1CDA0C340EDC04F11404C4F1200220FA04F001FA02F340EA030021FA04F337
:4021000045EA030130BDC4F10C04C4F1200220FA02F001FA04F340EA0300294630BD21FA04F0294630BD94F0000F83F4801306BF81F480110134013D4EE77FEA645C18BFE1
:402140007FEA655C29D094EA050F08BF90EA020F05D054EA000C04BF1946104630BD91EA030F1EBF0021002030BD5FEA545C05D14000494128BF41F0004130BD14F58004D0
:402180003CBF01F5801130BD01F0004545F0FE4141F470014FF0000030BD7FEA645C1ABF194610467FEA655C1CBF0B46024650EA013406BF52EA033591EA030F41F4002154
:4021C00030BD00BF90F0000F04BF0021704730B54FF4806404F132044FF000054FF0000150E700BF90F0000F04BF0021704730B54FF4806404F1320410F0004548BF404229
:402200004FF000013EE700BF42004FEAE2014FEA31014FEA02701FBF12F07F4393F07F4F81F06051704792F0000F14BF93F07F4F704730B54FF4607401F0004521F000414A
:4022400020E700BF50EA010208BF704730B54FF000050AE050EA010208BF704730B511F0004502D5404261EB41014FF4806404F132045FEA915C3FF4DCAE4FF003025FEA2B
:40228000DC0C18BF03325FEADC0C18BF033202EBDC02C2F1200300FA03FC20FA02F001FA03FE40EA0E0021FA02F11444C1E600BF70B54FF0FF0C4CF4E06C1CEA11541DBF05
:4022C0001CEA135594EA0C0F95EA0C0F00F0DEF82C4481EA030621EA4C5123EA4C5350EA013518BF52EA033541F4801143F4801338D0A0FB02CE4FF00005E1FB02E506F084
:402300000042E0FB03E54FF00006E1FB03569CF0000F18BF4EF0010EA4F1FF04B6F5007F64F5407404D25FEA4E0E6D4146EB060642EAC62141EA55514FEAC52040EA5E5050
:402340004FEACE2EB4F1FD0C88BFBCF5E06F1ED8BEF1004F08BF5FEA500E50F1000041EB045170BD06F0004646EA010140EA020081EA0301B4EB5C04C2BFD4EB0C0541EA5E
:40238000045170BD41F480114FF0000E013C00F3AB8014F1360FDEBF002001F0004170BDC4F10004203C35DA0C341BDC04F11404C4F1200500FA05F320FA04F001FA05F293
:4023C00040EA020001F0004221F0004110EBD37021FA04F642EB06015EEA430E08BF20EAD37070BDC4F10C04C4F1200500FA04F320FA05F001FA04F240EA020001F00041DD
:4024000010EBD37041F100015EEA430E08BF20EAD37070BDC4F1200500FA05F24EEA020E20FA04F301FA05F243EA020321FA04F001F0004121FA04F220EA020000EBD3707D
:402440005EEA430E08BF20EAD37070BD94F0000F0FD101F00046400041EB010111F4801F08BF013CF7D041EA060195F0000F18BF704703F00046520043EB030313F4801F42
:4024800008BF013DF7D043EA0603704794EA0C0F0CEA135518BF95EA0C0F0CD050EA410618BF52EA4306D1D181EA030101F000414FF0000070BD50EA410606BF1046194698
:4024C00052EA430619D094EA0C0F02D150EA013613D195EA0C0F05D152EA03361CBF104619460AD181EA030101F0004141F0FE4141F470014FF0000070BD41F0FE4141F495
:40250000780170BD70B54FF0FF0C4CF4E06C1CEA11541DBF1CEA135594EA0C0F95EA0C0F00F0A7F8A4EB050481EA030E52EA03354FEA013100F088804FEA03334FF0805515
:4025400045EA131343EA12634FEA022245EA111545EA10654FEA00260EF000419D4208BF964244F1FD0404F5407402D25B084FEA3202B61A65EB03055B084FEA32024FF430
:4025800080104FF4002CB6EB020E75EB030E22BFB61A754640EA0C005B084FEA3202B6EB020E75EB030E22BFB61A754640EA5C005B084FEA3202B6EB020E75EB030E22BFA1
:4025C000B61A754640EA9C005B084FEA3202B6EB020E75EB030E22BFB61A754640EADC0055EA060E18D04FEA051545EA16754FEA06164FEAC30343EA52734FEAC2025FEA52
:402600001C1CC0D111F4801F0BD141EA00014FF000004FF0004CB6E711F4801F04BF01430020B4F1FD0C88BFBCF5E06F3FF6AFAEB5EB030C04BFB6EB020C5FEA500C50F165
:40264000000041EB045170BD0EF0004E4EEA113114EB5C04C2BFD4EB0C0541EA045170BD41F480114FF0000E013C90E645EA060E8DE60CEA135594EA0C0F08BF95EA0C0FB5
:402680003FF43BAF94EA0C0F0AD150EA01347FF434AF95EA0C0F7FF425AF104619462CE795EA0C0F06D152EA03353FF4FDAE1046194622E750EA410618BF52EA43067FF44A
:4026C000C5AE50EA41047FF40DAF52EA43057FF4EBAE12E74FF0FF3C06E000BF4FF0010C02E000BF4FF0010C4DF804CD4FEA410C7FEA6C5C4FEA430C18BF7FEA6C5C1BD090
:4027000001B050EA410C0CBF52EA430C91EA030F02BF90EA020F0020704710F1000F91EA030F58BF994208BF90422CBFD8176FEAE37040F0010070474FEA410C7FEA6C5C0E
:4027400002D150EA013C07D14FEA430C7FEA6C5CD6D152EA033CD3D05DF8040B704700BF8446104662468C461946634600E000BF01B5FFF7B7FF002848BF10F1000F01BD3F
:402780004DF808EDFFF7F4FF0CBF012000205DF808FB00BF4DF808EDFFF7EAFF34BF012000205DF808FB00BF4DF808EDFFF7E0FF94BF012000205DF808FB00BF4DF808ED7B
:4027C000FFF7CEFF94BF012000205DF808FB00BF4DF808EDFFF7C4FF34BF012000205DF808FB00BF4FEA410212F5001215D211D56FF47873B3EB625212D94FEAC12343F0F0
:40280000004343EA505311F0004F23FA02F018BF404270474FF00000704750EA013005D111F0004008BF6FF0004070474FF00000704700BF4A0011D212F5001211D20DD5C1
:402840006FF47873B3EB62520ED44FEAC12343F0004343EA505323FA02F070474FF00000704750EA013002D14FF0FF3070474FF00000704780F0004002E000BF81F000415B
:4028800042001FBF5FEA410392EA030F7FEA226C7FEA236C6AD04FEA1262D2EB1363C1BFD218414048404140B8BF5B42192B88BF704710F0004F40F4000020F07F4018BF61
:4028C000404211F0004F41F4000121F07F4118BF494292EA030F3FD0A2F1010241FA03FC10EB0C00C3F1200301FA03F100F0004302D5494260EB4000B0F5000F13D3B0F108
:40290000807F06D340084FEA310102F10102FE2A51D2B1F1004F40EBC25008BF20F0010040EA03007047490040EB000010F4000FA2F10102EDD1B0FA80FCACF1080CB2EB92
:402940000C0200FA0CF0AABF00EBC25052421843BCBFD0401843704792F0000F81F4000106BF80F400000132013BB5E74FEA41037FEA226C18BF7FEA236C21D092EA030F54
:4029800004D092F0000F08BF0846704790EA010F1CBF0020704712F07F4F04D1400028BF40F00040704712F100723CBF00F50000704700F0004343F0FE4040F4000070470C
:4029C0007FEA226216BF08467FEA23630146420206BF5FEA412390EA010F40F4800070474FF0000304E000BF10F0004348BF40425FEA000C08BF704743F0964301464FF0D0
:402A000000001CE050EA010208BF70474FF000030AE000BF50EA010208BF704711F0004302D5404261EB41015FEA010C02BF84460146002043F0B64308BFA3F18053A3F5D4
:402A40000003BCFA8CF2083AA3EBC25310DB01FA02FC634400FA02FCC2F12002BCF1004F20FA02F243EB020008BF20F00100704702F1200201FA02FCC2F1200250EA4C00B0
:402A800021FA02F243EB020008BF20EADC7070474FF0FF0C1CEAD0521EBF1CEAD15392EA0C0F93EA0C0F6FD01A4480EA010C400218BF5FEA41211ED04FF0006343EA501066
:402AC00043EA5111A0FB01310CF00040B1F5000F3EBF490041EAD3715B0040EA010062F17F02FD2A1DD8B3F1004F40EBC25008BF20F00100704790F0000F0CF0004C08BF01
:402B000049024CEA502040EA51207F3AC2BFD2F1FF0340EAC250704740F400004FF00003013A5DDC12F1190FDCBF00F000407047C2F10002410021FA02F1C2F1200200FAAD
:402B400002FC5FEA310040F1000053EA4C0308BF20EADC70704792F0000F00F0004C02BF400010F4000F013AF9D040EA0C0093F0000F01F0004C02BF490011F4000F013B08
:402B8000F9D041EA0C018FE70CEAD15392EA0C0F18BF93EA0C0F0AD030F0004C18BF31F0004CD8D180EA010000F00040704790F0000F17BF90F0004F084691F0000F91F066
:402BC000004F14D092EA0C0F01D142020FD193EA0C0F03D14B0218BF084608D180EA010000F0004040F0FE4040F40000704740F0FE4040F4400070474FF0FF0C1CEAD0525F
:402C00001EBF1CEAD15392EA0C0F93EA0C0F69D0A2EB030280EA010C49024FEA402037D04FF0805343EA111143EA10130CF000408B4238BF5B0042F17D024FF4000C8B4257
:402C400024BF5B1A40EA0C00B3EB510F24BFA3EB510340EA5C00B3EB910F24BFA3EB910340EA9C00B3EBD10F24BFA3EBD10340EADC001B0118BF5FEA1C1CE0D1FD2A3FF62A
:402C800050AF8B4240EBC25008BF20F0010070470CF0004C4CEA50207F32C2BFD2F1FF0340EAC250704740F400004FF00003013A37E792F0000F00F0004C02BF400010F403
:402CC000000F013AF9D040EA0C0093F0000F01F0004C02BF490011F4000F013BF9D041EA0C0195E70CEAD15392EA0C0F08D142027FF47DAF93EA0C0F7FF470AF084676E7A3
:402D000093EA0C0F04D14B023FF44CAF08466EE730F0004C18BF31F0004CCAD130F000427FF45CAF31F000437FF43CAF5FE700BF0E4B70B51E460E4C0025E41AA410A5421C
:402D400004D056F8253098470135F8E700F038F9084B094C1E46E41AA4100025A54204D056F8253098470135F8E770BDCC2F0000CC2F0000CC2F0000D42F000010B5431E4B
:402D80000A44914204D011F8014B03F8014FF8E710BD03460244934202D003F8011BFAE77047000000000000005100402000305100401000505100401000C0510040100019
:402DC000F0510040100000000140001000140140000800400140000A004C01400002005001402000FB21F93FFB2109407CD91240FB2119407A6A1F407CD92240BBFD2540DD
:402E0000FB2129403A462C407A6A2F405C4731407CD932409C6B3440BBFD3540DB8F3740FB2139401BB43A403A463C405AD83D407A6A3F404C7E40405C4741406C10424012
:402E40007CD942408CA243409C6B4440AC344540BBFD4540CBC64640DB8F4740EB584840FB21494083F9A200444E6E00FC291500D1572700DD34F50062DBC0003C99950011
:402E8000419043006351FE00BBDEAB00B761C5003A6E2400D24D42004906E00009EA2E001C92D100EB1DFE0029B11C00E83EA700F535820044BB2E009CE98400B42670003A
:402EC000417E5F00D6913900538339009CF439008B5F840028F9BD00F81F3B00DEFF97000F980500112FEF000A5A8B006D1F6D00CF7E360009CB2700464FB7009E663F005A
:402F00002DEA5F00BA277500E5EBC7003D7BF100F739070092528A00FB6BEA001FB15F00085D8D00300356007BFC4600F0AB6B0020BCCF0036F49A00E3A91D005E619100BB
:402F4000081BE60085996500A0145F008D40680080D8FF0027734D0006063100CA561500C9A873007BE260006B8CC000020000000300000004000000060000000000000066
:402F800000000040FB21F93F000000002D44743E000000809846F83C0000006051CC783B00000080831BF0390000004020257A38000000802282E336000000001DF369352F
:402FC000F8B500BFF8BC08BC9E4670474D000000AD030000F8B500BFF8BC08BC9E46704729000000F82F00000881FF1F180000003040000000000000000000000000E02E49
:40300000C05D00001800000000366E0100000000000000000000000000000000000000000000000000000000000000000000000000000000000000000000000000000000B6
:403040000000000000000000000000000000000000000000000000000000000000000000000000000000000000000000000000000000000000000000000000000000000050
:403080000000000000000000000000000000000000000000000000000000000000000000000000000000000000000000000000000000000000000000000000000000000010
:4030C00000000000000000000000000000000000000000000000000000000000000000000000000000000000000000000000000000000000000000000000000000000000D0
:40310000000000000000000000000000000000000000000000000000000000000000000000000000000000000000000000000000000000000000000000000000000000008F
:020000040003F7
:0200000480007A
:400000000152004002640040010301403F0C0140320D01403B0E01402F0F014003400140044101400142014001430140024401400245014003480140025001400151014059
:4000400034408D388E72E60285188620880189088A0E8F04900492119302951D9807991C9B019D10A220A407A505A718AB02AC02AD18AE11AF05B020B101B407B502B61891
:40008000B71CB902BB08BE41BF10C024C103C205C401C50CC70EC811C9FFCAFFCBFFCC62CDA0CEF0CF41D00CD418D604D804D904DA04DB04DF01E640E702E910EA30EB1095
:4000C000ED10EE10EF1201280A040B801002130A180119201B01200221082202230629802B2830803128320238684041410843214801490853085A02634687408D208E40CA
:40010000902892069380968099809B09A082A120A320A508B002C006C20AC40DCA0ECC0FCE0ED00FD208D601D80D0110022304330508060C080209DF0C1F0E200F04100320
:4001400011441320143F1580181C191C1A231BC21FC32008211C23C1240425C72718280C29182C012DC0301031C0340F351F362C37203AA03B203E0156025713580459040F
:400180005B045F018501900191019202950198039C029E01A403B603B701D804D904DF01018002800328080109280A800B100C020E0610821324170819811BA01E021F4039
:4001C000216022012680270128012A202BA03002312032803308370A39803A023B143E0459016A046B0A7094722273248E018F08C00FC2DEC42FCA0FCCCFCE4FD60132206A
:400200003780CC3086209F80A620E6409F809F800920C202B120EE0123809F80C84000010E01000F007F7F0000000000000000000000030040000000000000000000000045
:40024000000000000000000000000000000000000000000000000000000000000000000000000000000000000000000000000000000000000000000000000000000000007E
:40028000000000000000000000000000000000000000000000000000000000000000000000000000000000000000000000000000000000000000000000000000000000003E
:4002C00000000000000000000000000000000000000000000000000000000000000000000000000000000000000000000000000000000000000000000000000000000000FE
:4003000000000000000000000000000000000000000000000000000000000000000000000000000000000000000000000000000000000000000000000000000000000000BD
:0200000490006A
:0400000000004005B7
:0200000490105A
:04000000BC90ACAF55
:0200000490303A
:02000000DE928E
:0200000490402A
:4000000000000000000000000000000000000000000000000000000000000000000000000000000000000000000000000000000000000000000000000000000000000000C0
:400040000000000000000000000000000000000000000000000000000000000000000000000000000000000000000000000000000000000000000000000000000000000080
:400080000000000000000000000000000000000000000000000000000000000000000000000000000000000000000000000000000000000000000000000000000000000040
:4000C0000000000000000000000000000000000000000000000000000000000000000000000000000000000000000000000000000000000000000000000000000000000000
:0200000490501A
:0C00000000012E12306900012E260EFBBC
:00000001FF