:4000000000800020110000008D0C00008D0C000008B5044B1A6803F53F5302331A6000F04FFE00BFFA46004010B5054C237833B9044B13B10448AFF300800123237010BDF8
:40004000C881FF1F0000000044860000084B10B51BB108480849AFF300800848036803B910BD074B002BFBD0BDE81040184700BF0000000044860000CC81FF1F0881FF1F2D
:400080000000000008B501F027F93038C1B21F290FD8002308E041FA03F212F0010F02D00520044AD0540133042BF4DD024800F03FFD08BDFC060020C4E6FF1F38B5144D0B
:4000C0002A68144C2368591C216003EB0233124AD05C01F0E7FA2B68104A52F823102268914214D10021216001332B60022B01D12B461960064B1A68094B1B689A4206D1BD
:40010000084B1B781BB101F03DFB01F0AFFA38BD04070020C0E6FF1FF8E6FF1FB0DEFF1FF8060020B8E6FF1F08B500F0D5FF01F039F801F023FA012001F0D4F900200146ED
:4001400001F02AFA01F09AF801F0B8F801F08EFB044801F085F8044801F0EEF801F0D0FB08BD00BF750300008500000070B590B000F06AF90122204B1A60204D0CAC204667
:4001800000F0FAFA94E80F0085E80F00002612E0194B1C68621C1A60184B03EB04140CAD2846F1B20522002300F002FB95E80F0084E80F000136042EEADD114E6846114954
:4001C00000F0BCFB35466C460FCC0FC50FCC0FC594E80F0085E80F000020014601F0DCF9094801F071F9706806F09EFB80B201F0F1F910B070BD00BFA8D4FF1FACD4FF1F95
:40020000C4E6FF1F588600006886000010B584B0184B6C460FCB07C4237000238DF80D306846154901F08EFC144B186070B91EE0124B1868124901EB04314FF4805201F01B
:40024000F2FC104B43F82400013400E00024012CEEDD00230C4A13600C4A13600C4A13600C4A137001F054FA0B4801F07DFA04B010BD00BF4886000074860000F4E6FF1F54
:40028000F8E6FF1FB0DEFF1FF806002004070020C0E6FF1FB8E6FF1FBD00000038B500240AE0084D15F8140000F0DEFE05EB4405687800F03FFF0134034B1B689C42F0DBDD
:4002C00038BD00BFB0D6FF1FBCE6FF1F70B584B0002424E01F4B1B5D93B1651C1E4B03EB05156846E1B20522012300F061FA9DE80F0085E80F00174A135D013B13550DE004
:40030000651C154B03EB05156846E1B20522002300F04EFA9DE80F0085E80F000134042CD8DD0E4D0E48294600F066FC06300D4B18600D4CA5F16001224600F051FA0B4B26
:400340001860214600F088FA0122094B1A7004B070BD00BFFC060020ACD4FF1F0CD5FF1FC4E6FF1FA8D4FF1FB8DEFF1F08070020ACD6FF1F08B5034800F07EFBFFF7A6FFDB
:4003800008BD00BFC4E6FF1F10B562B6FFF7CCFEFFF7ECFEFFF73AFF204B1B788BB1204B1868204B1860002306E01F4A32F813101E4A22F8131001338342F6DB0022174B8B
:4003C0001A701B4B1B7833BB1A4B1C681A4B1B689C4220D0194B1868194901EB04314FF4805201F020FC174A42F82400114B1B6852F823203AB901220D4B1A700F4B186867
:4004000001F0DAFA07E001330A4A1360022B02D10022084B1A60FFF741FFBDE7ACD6FF1F08070020BCE6FF1FB8DEFF1FB0D6FF1FB8E6FF1FF806002004070020F4E6FF1F68
:40044000F8E6FF1FB0DEFF1F2DE9F8430022144610E0C2EB0223C04981FB0301DB17C3EB6103BE4901F8143001EB440100234B70013201340B2AECDD002212E002FB02F3F9
:40048000C3EB0323B64981FB0301DB17C3EB6113B249FF2001F8140001EB44014B70013201340B2AEADD002211E0C2EB0223AA4981FB0301DB17C3EB6103A849DB4301F8FA
:4004C000143001EB4401FF234B70023201340B2AEBDD002521E0661C284605F0B9FB03F0A1F999A3D3E9002305F018FC98A3D3E9002305F03DFD02460B4693A1D1E9000103
:4005000005F058FA954B002203F8142003EB440405F0C6FE6070013534460B2DDBDD611C8E4A002302F8143002EB44046370C2F800141A4611E05C1CC2EB02200146002851
:4005400000DAC11DC8108549803301F8130001EB43030021597001322346072AEBDD002212E05C1CC2EB02210846002900DAC81D7A4980336FEAE00001F8130001EB43032E
:400580000021597001322346072AEADD591C734A8033002402F8134002EB43035C70C2F80414254657E0284605F0A4FF6D4905F0F5FF4FF0785105F0F1FF05F05BFB0646CB
:4005C0000F4603F09DF802460B460020664905F0F1F90022654B05F0A1FB05F061FE5FFA80F83046394603F0D3F806460F4600225D4B05F0E1F900225D4B05F08FFB05F024
:400600004FFE564B04F5807203F8128003EB4203587004F1010915F0010F02D00020554901E00020504932463B4605F077FB00224D4B05F0C1F900224D4B05F06FFB05F044
:400640002FFE464B04F5C07403F8148003EB4403587001354C46072DA5DD002558E0284605F048FF3F4905F099FF4FF0785105F095FF05F0FFFA06460F4603F041F80022FB
:40068000394B05F099F90022384B05F047FB05F007FE5FFA80F83046394603F079F8064689460020304932464B4605F083F900222F4B05F033FB05F0F3FD284B04F58072FF
:4006C00003F8128003EB42035870671C09F1004915F0010F02D00022264B01E00022224B3046494605F01AFB00221F4B05F064F900221F4B05F012FB05F0D2FD174B04F528
:40070000C07403F8148003EB4403587001353C46072DA4DD114B04F58072002003F8120003EB420205215170621C04F5C07403F8140003EB44046170C3F80824C3F80C246C
:40074000BDE8F883AFF300800000000000E06F40AA4C58E87AB60B40ABAAAA2AE481FF1F398EE338DB0F49400000F03F00003440000014400000F0BF044AD2F800140160C3
:40078000002141608160C260704700BFE481FF1F10B4064AD2F80444046000244460816002F58072C2605DF8044B7047E481FF1F30B40BB1032400E00224084B03EB8405C8
:4007C000D5F8005401EB410109010A3103EB0423056041608260C36030BC7047E481FF1F2DE9F04184464FF0000E70462EE0F36803EB450813F81540776898F80180B368FC
:400800004344461C400002EB0008E41905D4FF2C01DCE4B202E0FF2400E00024002B05DBFF2B01DCDBB202E0FF2300E00023145488F801300135304600E000254FEA0E1353
:40084000CE18CB58AB42D2DC0EF1010EE645F4DBBDE8F081000000002DE9F04F83B082460D46002443E005EB440815F8149098F8010005F0EDF906460F461FA3D3E9002331
:4008800005F04CFACDE90001484605F0E1F9DDE9002305F091F805F023FD83463046394617A3D3E9002305F039FA05F019FD81463046394614A3D3E9002305F02FFA002251
:4008C000134B05F079F805F00BFD06465846314605F018FF06F04EF805F814004846314605F010FF06F046F888F8010001345445B9DB03B0BDE8F08F1CC6306984E5EE3F75
:400900000E639834C272074002D416CF87047F3F0000F03FAFF3008010B504460846A16805F032FD044905F039FE216805F0EAFE05F0FAFF053010BD000070462DE9F04F46
:40094000ADF5077D81460846484901F0FBF8009000285AD14FF0000BDA464FF0000863E0042C4CD8DFE804F01212030F120006AB5A5D3F494FEA480343449B00C818303AB9
:40098000CA54002303720134E4B238E006AB5B5D0A2B31D1042C13D108F10103019303A806F008F808EB48084FEA8808304F474405F096FC7860033CE4B2DDF804800FE026
:4009C00034B903A805F0F6FF05F08AFC824607E0012C05D103A805F0EDFF05F081FC83460134E4B2002303E0002103AAD1540133092BF9DD002702E003AAD3550137013533
:400A000000E00025B542ABDB05E0002427464FF0000BDA46A046009806A94FF4007201F002F906460028ECD1C9F800A0C9F804B00023C9F808300023C9F80C30C9F81080F2
:400A40000B4AC9F81420C9F818300A4AC9F81C20C9F82030C9F82430C9F82830C9F82C3048460DF5077DBDE8F08F00BF74860000F485FF1FD4B4FF1F70B50446856828467E
:400A8000616805F047FF00284DD1284605F0F2F825A3D3E9002304F08FFF05F021FCA0600CE0626905EB45039B00134420465968FFF732FFFE2814DC01356562656A2369C7
:400AC0009D42EEDB0DE0626906EB46039B00134420465968FFF720FF10F10A0F10DA01362662266AB542EEDC0AE0E369204653F82510FFF711FF0530FE2811DC0135E56233
:400B0000E56AA3699D42F0DB0AE0E369204653F82610FFF701FF10F1050F04D50136A662A66AB542F1DC70BD9A9999999999A93F2DE9F04F83B005468A46D0F80CB00026A3
:400B40004DE04AFA06F313F0010F47D0D5F82080444638E06A6904EB44039B00D718D35CB3422FD13B7A6BBB7868A96805F00CFC8146002105F0B0FE08B109F1004928683B
:400B80001A4905F00BFD1A4905F0BCFD4FF06E5105F004FD01904846019905F09DFE88B14846019905F0AEFD01464FF07E5005F0EBFB104905F0F2FC05F0B6FE8344012387
:400BC0003B720AE001346B6AA34205DD08F10A03A342BFDC002300E0002323B10136042EAFDDC5F80CB003B0BDE8F08F0000A041000070420000C8422DE9F04F87B0054654
:400C00008B46076A00241FE0D5F814A007EB47084FEA88080AEB08092846D9F80410FFF77BFE0246631C01930BEB041402AE30461AF8081099F80830FFF7BAFD96E80F0040
:400C400084E80F000137019C6B6ABB42DCDCAF6A14E0EB69284653F82710FFF75DFE411D04F101080BEB041402AE3046FFF790FD96E80F0084E80F0001374446EB6ABB42C9
:400C8000E7DC204607B0BDE8F08F00BFFEE700BF08B5094B1A681044084BC31A802B02DC054B186005E005F089FE0C2303604FF0FF32104608BD00BF0C81FF1F98070020BE
:400CC00008B5104E104D16E029686B68AC68002204E051F8040B43F8040B0432A242F8D1E868002203E0002143F8041B04328242F9D11035013E002EE6D105F065FEFFF738
:400D000043FBFEE701000000608B000008B5124A124B1A60124A136843F40073136000230AE0032B03D80F4A52F8231000E00E490E4A42F8231001332F2BF2D90C4B1A7896
:400D40000C4B1A70094A0C4B1A6000F0D9F800220A4B1A6008BD00BF0004FA050CED00E014ED00E0000000008D0C00000080FF1FBC7600400481FF1F08ED00E00081FF1FBB
:400D8000FEE700BFF0B40022174611E050F82760F3B226F0FF0608E001EB420511F812406D78A5550132013BDBB2002BF4D101371A2FEBD9F0BC70470F4B1B78DBB203F096
:400DC00007010E4A11701B090132137080220C4B1A70032241331A70012203F636131A7010220D331A702023064A1370C03213704422054B1A707047CF0100496E58004006
:400E00000C510040985A00407658004008B50A46002105F00AFE08BD38B500242C4B1C80582202331A70172202331A801823294A13704FF49C71023211800232137040F251
:400E40001F2102321180023213700222224B1A7008224FF040231A70032103F5007319701E4B1B78DBB21E490B701E4B1A8041F25122023B1A8019250CE01B4B1B7803F02C
:400E8000010343EA440404F003044FF4F07000F09BF9013D0DB1032CEFD115B90320FFF76FFF124B4FF480721A8007221A7000220F490A704820023108701A700222033B85
:400EC0001A700C4A137843F00F03137038BD00BF80400040864000400043004008010049A146004022420040254200400440004006400040A243004008B505F08BFD08BD90
:400F000070B572B6374A137843F00403137000240CE0354963001A1952000A4423445B00C8589188FFF772FF0134E4B20A2CF0D900240BE02C49A3001A1952000A44506CF5
:400F4000916C8022FFF7D8FF0134E4B2002CF1D04FF090402549FFF715FF254A137843F0020313701032137843F002031370214C237843F040032370A2F58632513A137813
:400F800043F0100313701C481C490822FFF7B4FF1B481C490822FFF7AFFF1B481B490822FFF7AAFF1A481B490822FFF7A5FF1A481A490822FFF7A0FF194A137843F008036C
:400FC0001370184E01253570FFF726FF81233370154B1D70FFF7F0FE144821460E22FFF78BFF70BDE8460040788600006C00004803500140A0430040025100407005004843
:401000002251004078050048325100408005004842510040880500486251004090050048224300400048004004000840B0430040054A137843F0040313701032137843F0ED
:4010400004031370704700BFA8430040054B1A7802F0FD021A701A7800F0020010431870704700BF28580040014B1870704700BF825B0040064B1B78C3F3810303F1924305
:40108000063393F82831DBB2024A1370704700BF285800400A46004008B5064B1A7802F0F3021A701A7800F00C0010431870FFF7E1FF08BD2858004008B50023054A13706A
:4010C000013213700420FFF7E7FF0220FFF7BEFF08BD00BF2858004008B5074B1B7823B9FFF7EAFF0122044B1A70FFF7A1FF6420FFF7BAFF08BD00BF74C4FF1F054A13784B
:4011000043F0080313701032137843F008031370704700BFA8430040054B1A7802F0FD021A701A7800F0020010431870704700BF2C580040014B1870704700BF835B004061
:40114000064B1B78C3F3810303F19243063393F83831DBB2024A1370704700BF2C5800400B46004008B5064B1A7802F0F3021A701A7800F00C0010431870FFF7E1FF08BD1F
:401180002C58004008B50023054A1370013213700420FFF7E7FF0220FFF7BEFF08BD00BF2C58004008B5074B1B7823B9FFF7EAFF0122044B1A70FFF7A1FF6420FFF7BAFFC4
:4011C00008BD00BF75C4FF1F0230800803D000BF01380046FCD17047EFF3108072B6704780F31088704700BF01BE704710B5044605E0084B1868FFF7E7FFA4F50044B4F554
:40120000004FF6D8034B586800FB04F0FFF7DCFF10BD00BF1081FF1F08B5034B1B7A03FB00F0FFF7D1FF08BD1081FF1F014B1B689864704708ED00E04001C0B2014B1870E2
:40124000704700BF02E400E00422014B1A60704700E100E00422014B1A60704780E100E010B50446FFF7F6FF2046FFF7DFFF0720FFF7E2FFFFF7E8FF10BD00BF7222034B6D
:401280001A70202202331A70704700BF8B64004010B5FFF7A1FF0446074A137843F0200313700232137843F01003137000F0C2F92046FFF795FF10BD9B64004008B5054B68
:4012C0001B7823B9FFF7DAFF0122024B1A70FFF7DFFF08BD76C4FF1F084B1B78DBB213F0200F06D0064A1078C0B213F01E0F02D17047002070470020704700BF6D640040C8
:401300004D640040014B1B685864704708ED00E04001C0B2014B1870704700BF01E400E00222014B1A60704700E100E00222014B1A60704780E100E010B50446FFF7F6FFA5
:401340002046FFF7DFFF0120FFF7E2FFFFF7E8FF10BD00BF10B50B4C237803F09F032370237803F0F00323702378184340F0100020700120FFF750FF237803F0EF032370A0
:4013800010BD00BF2051004038B505460E4C237843F020032370237803F0BF0323700020FFF73AFF237803F0F003237023781D4345F0100525700120FFF72EFF237803F0E8
:4013C000EF03237038BD00BF2051004070B5354B1A7802F08002D2B21A7033490A7802F0F00242F00F020A7001310A7802F0F0020A7001310A7802F0F0020A701A7802F003
:40140000DF021A701A7842F040021A704FF4CA760020FFF701FF234D2B7843F010032B700120FFF7F9FE214B1C78E4B22B7803F0EF032B700020FFF7EFFE04F00804E4B2C4
:401440002B7843F010032B700120FFF7E5FE2B7803F0EF032B7014B90A20FFF7DDFE013E0CB1002ED4D10F4A137803F0BF031370137803F08003DBB213700232137803F055
:40148000F00313700132137803F0F00343F00F0313700132137803F0F00343F00F03137070BD00BF20510040225100402151004010B50446FFF78AFF2009FFF765FF04F0D7
:4014C0000F00FFF761FF10BD38B505460078012404E0FFF7EDFF285D0134E4B20028F8D138BD00BF10B50446FFF770FF2009FFF731FF04F00F00FFF72DFF10BD08B5282070
:40150000FFF774FE0320FFF725FF0520FFF76EFE0320FFF71FFF0F20FFF768FE0320FFF719FF0120FFF762FE0220FFF713FF0520FFF75CFE0620FFF7D5FF0E20FFF7D2FF91
:401540002C20FFF7CFFF0820FFF7CCFF0120FFF7C9FF0C20FFF7C6FF0320FFF7C3FF0520FFF744FE08BD00BF08B50C20FFF7BAFF0122014B1A7008BD77C4FF1F08B5054B34
:401580005B7823B9FFF7BAFF0122024B5A70FFF7EBFF08BD77C4FF1F08B5032819D8DFE800F002070D1381F08000FFF79BFF08BDA1F14000C0B2FFF795FF08BDA1F16C0005
:4015C000C0B2FFF78FFF08BDA1F12C00C0B2FFF789FF08BD00B585B000238DF80E30092210E0134BA3FB0013DB08194603EB83035B00C31A303304A8104400F80C3C0846E4
:40160000013AD2B20928ECD8094BA3FB0013DB0803EB83035B00C31A303304A9114401F80C3C01AB9818FFF74FFF05B05DF804FBCDCCCCCC054A137843F004031370103209
:40164000137843F004031370704700BFA2430040054A137843F0010313701032137843F001031370704700BFA8430040054A137803F0FE0313701032137803F0FE03137036
:40168000704700BFA8430040054B1A7802F0FD021A701A7800F0020010431870704700BF20580040014B1870704700BF805B0040064B1B78C3F3810303F19243063393F88F
:4016C0002031DBB2024A1370704700BF205800400846004008B5064B1A7802F0F3021A701A7800F00C0010431870FFF7E1FF08BD2058004008B50020044B18700133187044
:40170000FFF7E8FF0220FFF7BFFF08BD2058004008B5074B1B7823B9FFF7ECFF0122044B1A70FFF795FF6420FFF7BCFF08BD00BF79C4FF1F014B1B681864704708ED00E0A9
:401740004001C0B2014B1870704700BF00E400E00122014B1A60704700E100E00122014B1A60704780E100E010B50446FFF7F6FF2046FFF7DFFF0020FFF7E2FFFFF7E8FF5E
:4017800010BD00BF08B5FFF7E9FF0248FFF7D2FF08BD00BF8D0C0000084A137843F0010313701032137843F00103137002F64D32137843F001031370704700BFA34300405E
:4017C000014B1870704700BF034F004010B50446094B1B7813F0010F02D00020FFF704FD054B1A7842F001021A70044A14801A7802F0FE021A7010BDA3430040064F004002
:40180000014B1880704700BF044F004008B5154A137803F0010313700232137803F0FC031370013A137843F0010313700E4B1A7802F0CF021A701A7842F030021A701A789C
:4018400002F0F0021A701A7842F00F021A704CF25030FFF7D5FF0020FFF7B8FF0020FFF7AFFF08BD004F00400B4F004008B5054B1B7823B9FFF7CAFF0122024B1A70FFF769
:401880008BFF08BD7AC4FF1F094B10B5D8689A68002308E0114652F8084B1CB901230B60486810BD01338342F4D3002010BD00BF0C070020084B30B50022DC689B6808E01A
:4018C0005D6819460833854202D100230B6030BD0132A242F4D330BD0C07002001230373704700230373704710B1002282720260704718B1027B0AB1013A0273704700007D
:4019000038B501F0F9FC20B3124C4200E260000101F0E6FC238AA060E068584301F0E0FCA568E168228A002304E005EBC3046060013380188B42F8D3102001F0D1FC054CCB
:401940006061282001F0CCFCA37CA06143F00203A37438BD0C07002038B510220D460021044601F0EFFBFFF78FFF08B9013038BDA0604FF0FF33002065602360A07338BD0A
:4019800038B5837A044643B1056801F0A9FB2846FFF7AFFF2046FFF7A7FF002038BD08B50368827A03B19B6822B11BB1FFF7E8FF002008BD012008BD08B901307047FFF713
:4019C000EEBF000038B5104B9C69217B59B921606160A16004F11000142201F0B3FB237B013323730DE0656A45B9282001F062FC606218B12946282201F0A4FB646A002C9B
:401A0000E3D1204638BD00BF0C07002038B50E4B5C69A17AE56839B92046102201F092FB0123A372E5600CE045B9102001F042FCE06018B12946102201F084FBE468002CD1
:401A4000E7D1204638BD00BF0C0700202DE9F74F06460020884691469B469DF830A09DF83470FFF7AFFF054608B9044610E0FFF7CDFF044660B180F80B900560AE60404662
:401A8000214652463B46CDF800B001F0E7F830B12046FFF729FF2846FFF72BFF00242046BDE8FE8F2DE9FF410C461F4604A9002341F8043D15469DF8286000F0BFF8804676
:401AC000B8B1039B0BB11B789BB1404600F03FF900280EDD14F0150F01D0032809D1039939B1404622462B4600970196FFF7AEFF00E0002004B0BDE8F08100002DE9F341BB
:401B00000646884600240E4D404655F83410E70001F04EFB10B9002C04DA0DE001340F2CF1D109E07D19A87929790090EA796B793046FFF7B7FF00E00020BDE8FC8100BFC6
:401B4000C8860000FFF7DABF10B5437B04460BB1012010BD40682168A268A37B01F097FC10B10120607310BD207310BD10B5437B044663B9037B53B140682168A268A37B8E
:401B800001F085FC08B1012363730023237310BD036870B5994204460D46164607D0037B0BB1FFF7E3FF00232560A673E37370BDFFF7DCBF10B50446FFF7D8FFA068BDE8CF
:401BC0001040FFF777BE01230373FFF7CFBF10B50446407B08B1012010BDE37B5BB960682168A268A37B01F0E8FB10B10120607310BD0122E27310BD30B592B188B1857AF5
:401C0000046875B16CB190F80BC01CF0080C04D14FF6FB720281604630BDBDE8304001F061B9002030BDFFF7E7BF08B5436813B94FF0FF3008BD984708BD00002DE9F047C4
:401C40000F463A21064601F0E2FA044610B93446174D27E00378C6EB000A5BB114F8013F43B162783A2A05D1A3F130085FFA88F8023401E04FF000080D4D2B6828791B68F9
:401C80009847814601F0A1FA504508D148463146524601F0A2FA10B92B79434502D0ED6D002DEAD107B13C602846BDE8F08700BF28070020F8B5174C064694F85B10E56DC0
:401CC00069B960220127204601F03CFA84F85B70E5653046FFF7A9FF00280EDA18E045B9602001F0E7FAE06518B12946602201F029FAE46D002CE0D10AE0074B2660DA6F42
:401D00000132DA670323207184F85B7084F85A302046F8BD280700200C070020FFF7CABF38B504460D4601F016FB08B9013838BD204601F023FB204601F0C0FC204600F0B6
:401D4000B7FC08B184F8595094F8590038BD90F8593023B990F85A1009B1FFF7E1BF184670470C2802D0102805D102E001EB510070474800704788007047036840689B6876
:401D80005B6AB0FBF3F0704710B5046D836CE4B199421AD3E318994217D2013B99420CBF4FF0FF31013172B190F836300C2B02D0102B05D102E00905090D03E089B201E025
:401DC00021F070411160012010BD002010BD40F6F473984201D80C2070474FF6F473984294BF102020207047027F8368023902FB01307047431EDBB21F2B13D92F2811D0BA
:401E000007D826280ED002D8222809D10AE02A3804E03A2804D33F2804D95B38022801D90120704700207047034638B30B2A01DD0B2200E0013A00201CE0082809D191F868
:401E400008C0BCF1200F0DD04FF02E0C03F801CB08E038B991F800C0BCF1050F02D1ACF1200C04E011F800C0BCF1200F01D003F801CB01309042E0DB00221A7070472DE9CA
:401E8000F04788B005AE04460D463046114600229A469DF84490BDF84C80BDF8507000F01DFD08B1002413E020462946524600F00EFE044660B1129B31460093109A4B46A5
:401EC000CDF80480029700F0C5FF2846FFF706FD204608B0BDE8F08710B59DF80C400394BDE8104000F0D8BD2DE9F04F144E87B0109DDDF848809DF84440376800950194DA
:401F0000CDF8088005937F68934682468946B84732680C4BDDF814C09A420DD060B9504649465A46634610951194CDF8488007B0BDE8F04FFFF7D0BF07B0BDE8F08F00BFFB
:401F40002081FF1F7087000070B5C37A04460B7010300D4601F08AF9064604F10E0001F085F940EA0640686004F1120001F07EF90004A86004F1180001F078F9064604F15C
:401F8000160001F073F940EA0640E86004F11C0001F053F9286170BD2DE9F845038A04460E46924687692BB907F118002146626900F064FC38465146224600F0E7FC05469B
:401FC000204600F065FCD5B12B78C3B1E52BF1D095F80B80B8F10F0FECD018F00808E9D170692946B269FFF71FFF28463146FFF7ABFF238A404601332382BDE8F8854FF0E6
:40200000FF30BDE8F8850222FFF7C2BD2DE9F04790F8366005460C46304611469146FFF7A0FEB5F81E80AB6A20FA08F89845824602D30020BDE8F0876B8E05F1180798445C
:40204000204641463A46FFF7DEFF2046FFF7BFFD18B14FF0FF30BDE8F087AA8BA168013A0AEA020A1FFA8AFA92450AEB01031AF8015001D0013309E0204608F101013A469D
:40208000FFF7C1FF2046FFF7A2FDA36818780C2E45EA002009D0202E0FD15D7840EA05409D7840EA0560BDE8F08719F0010F02D00009BDE8F0870005000DBDE8F087000002
:4020C0002DE9F34190F83630144603FB02F7828B8846D200511E0F40D71B0546B7FBF3F7002618E00E4B93F88030022B05D12846214601AAFFF748FE28B928464146224664
:40210000FFF784FF0190019B0134A34205D10136B6B2013F1C46002FE4DC3046BDE8FC810C0700202DE9F34105460E46144698461F681CE0114B93F88030022B05D1284662
:40214000214601AAFFF720FE28B9284631462246FFF75CFF0190737B0BB100240BE0AA6B019B0132934204D81BB1013F1C46002FE0D1C8F800702046BDE8FC810C070020A2
:4021800073B504680E4623681BB9FFF7F6FD013039E0FFF7F2FD236998423CBF4FF0FF3323612369B3F1FF3F04D12268013323616261E3832169E28B451A954234BF2B462B
:4021C00013463BB16069C918C018D21A60612161E283ED1A0DB9284615E002AB43F8045D31466269A068FFF79DFF6061019B21690246C91A4D19256123B9A0683146FFF7E0
:402200005FFFE08301987CBD13B502AC44F8043D2346FFF787FF019B002B18BF00201CBD2DE9F0410746884615461E460024384641462A460123FFF7E7FF30B1BA6B0134A7
:40224000944201D80546F2E7002406B134602846BDE8F0812DE9F74F04460D461E461746002A00F0B98090F836001146FFF779FDB4F81EA0A36A20FA0AFA9A45814680F05F
:40228000AB80638E04F118089A44284651464246FFF7B9FE2846FFF79AFC6B7B002B40F09B80A38BAA68013B09EA03091FFA89F303EB020926B9216C8F4203D2276401E0F8
:4022C000791C216494F8361010290AD0202911D1484600F0B2FF31460746484600F0B8FF4EE0484600F0C2FFB1B20746484600F0B9FF45E0284600920193FFF7EFFA009A07
:40230000019B17F0010F13F802B01BD00BF00F0141EA06119954A28B013A934202D009F1010309E028460AF101014246FFF76BFE2846FFF74CFCAB681F7832093F0147EABE
:402340001B171CE09E54A28B013A934202D009F1010309E028460AF101014246FFF753FE2846FFF734FCAB681A78310A02F00F0701F00F0122F00F024BEA07270A431A7033
:402380002846FFF7ABFA94F83630202B18D1B4F84620AAB9B4F844102846FFF7F9FB2846FFF715FCA8684FF0FF3100F5F47000F04FFF2846FFF792FA4FF00103A4F8463051
:4023C000E36BB3F1FF3F09D00FB10133E3632EB1E36B013BE36301E0012000E00020BDE8FE8F6FF07043FFF735BF70B5036D04460E4693B1002506E0AA1820463146531C2B
:40240000FFF728FF0135236DA26C013B9D42F3D320463146AA18FFF7E4FF0023A3642365E364636570BD70B506460D461C460AB1FFF710FF304629462246BDE87040FFF7E6
:40244000D0BF00002DE9F84504460E4615461F46002B36D01C4B93F88030022B31D190F8368011464046FFF77CFCB4F81CA00AF1FF3A2AEA000A4FEACA0ABAFBF8FAAA4435
:40248000A8460EE0204631464246FFF7BFFD50B9A36C0BB9C4F84880E36C08F101080133E364D045EED9E36C5BB167653B685A6922B1204631462B46FFF7CCFE236D0133EF
:4024C0002365BDE8F88500BF0C0700202DE9F8459846274B054693F880300F46022B1646846B19D1436D984503D0C36C0BB1FFF77CFFB8F1000F0FD06B6D43450CD12B6D38
:40250000EA6C9A4204D9AC6C1C1901332B652CE028463946FFF769FF012E04F1010A01D9564505D92E6C012E01D9564500D902263446284639462246FFF768FD50B1013403
:402540005445F6D902240DE0284639462246FFF75DFD30B92846394622464346FFF772FF03E00134B442EFD300242046BDE8F8850C070020F8B507460E461546FFF7A6FF1A
:40258000044628B1384631462A462346FFF74BFF2046F8BDB2F1FF3F73B504460D4614D0561A013611D0FFF703FB084B00211A8AA06800F0C7FD022300936068A3682946FB
:4025C000324600F03FFF0023E3737CBD0C0700202DE9F84F984690F8363004460C2B0D4616465AD04FF0FF3AD1463CE094F836003146FFF7B6FBB4F81CB0678E0BF1FF3B9F
:4026000010EA0B0BE38B1DD1D840013F3F18022228463946FFF7BCFAA38BAA689B0852F80B1079B9013B0BF1040BF8D13BE0494628465246FFF7AEFFB946BB462846FFF781
:4026400050F9DA462946324601232046FFF7DCFD29460746324620460023FFF7FBFD2FB108F1FF383E46B8F1000FBFD1284649465246FFF78FFF13E02946324601232046AD
:40268000FFF7C2FD29460746324620460023FFF7E1FD2FB108F1FF383E46B8F1000FEBD14046BDE8F88F0AF1010B5F45BFD1C5E72DE9F8450546FFF7E7F8044608B905466A
:4026C000D0E0284600F0EAFE684E338A834208D338B10021284622460B4600F06EFE002804DA2046FFF7E6F80025BBE004F5FF7000F0BCFD4AF65523984240F0AD8004F14F
:402700000B0000F0B3FD10F47E4F074600F0A480338A8342C0F0A080237C022B40F09C8094F80D80B8F1000F00F096800021402205F1180000F006FD04F1130000F096FD6C
:40274000064620B904F1200000F077FD064604F1160000F08BFD824680B904F1280000F085FD10F08F0F77D104F1240000F065FD824604F12C0000F060FDE862022385F8E9
:402780003530C5F828A0AE6185F8348004F10E0000F06CFD688604F1110000F067FD95F835206B8E288602FB0A3A7A0992B2B0FBF2F25244AF832A62092301219940B942B5
:4027C00001D1EB8302E00133102BF6D108FB07F7B61AB6FBF8F6AE636F623046FFF7F7FA202818BFC5F82CA04FF0FF33202885F83600EB6332D104F1300000F037FD002301
:402800000146A5F844002246284600F0D6FD002822DB204600F011FD804604F5F27000F00CFD074604F5FE7000F007FD104B984514D1104B9F4211D10F4B98420ED104F545
:40284000F67000F0FAFC286404F5F47000F0F5FCB04203D8E86301E0002500E001252046FFF728F82846BDE8F88500BF0C0700205252614172724161000055AA00238B6047
:40288000837F202B01D102B942694A600A60704783680133836070472DE9F0410C46202105461F469DF818604FF0000800F04AFC10E014F8080036B9E52804D1B8F1000F6E
:4028C00001D1E03802E000F09BFCC0B205F8080008F10108B845ECDBBDE8F0812DE9F74506460D4608462849002A14BF92464FF0FF3A00F05DFC804650B930462946022214
:4029000000F0F3FDB01C2021092200F01BFC37E04FF0FF34002715F80780B8F1000F01D0574505D1B4F1FF3F08BF3C4664B925E04046FFF75FFA08B3B8F12E0F08BF3C462C
:4029400001370D2FE7D119E0082C17DC3F1B042F14DC30462946082223464FF00008CDF80080FFF799FF0123611C009306F10800691803227B1EFFF78FFF01E04FF00108DD
:402980004046BDE8FE8500BF808700002DE9F74FD2F808B0436A4FEA4B18B8FBF3F8D368054698450E461446D2F8009001D20023D360B5F81EA0E368AAF1050A0BB9D4F85A
:4029C00004902BFA0AF7B9F1000F17D095F83420B8EB0303019206D04A4628463146FFF713FC814640B3494605F11800FFF7FCF9019B591E01EA0707C11906E02B8E43FA0C
:402A00000AF39F4218D2E96A79183046C4F80090C4F80C800122FFF7BBF83046FFF7D7F850B9013000FA0AFAB3680AF1FF3A0AEA0B0B03EB4B1000E00020BDE8FE8F2DE9B7
:402A4000FF4107460E4601A811461A460A9D9DF82C40FFF743FFC8B9384631462A46FFF795FF8046A0B1037883B101A90B2200F059FB38B998F80B3004EA0302A24201D17F
:402A8000082B05D12846FFF703FFE5E74FF00008404604B0BDE8F0812DE9F04587B002AF04460E46154698469DF83CA039460E9A1830FFF7E3FE204631462A464346009716
:402AC000CDF804A0FFF7BBFF07B0BDE8F0852DE9F04500F1180785B005460C46384669469246FFF7CBFE284621466A46FFF74EFF06466846E846FFF7CBFE002E37D1BAF16B
:402B0000000F02D12B8E002B35D12146009A00232846FFF785FB2146024600232846FFF729FD80462046FFF74EF8B8F1000F22D0AA8B0021A06800F005FB38464146FFF70A
:402B400053F995F8347000257E1E361808E0314620460122FFF71CF82046FEF7F5FF013E01357B1BB3F1FF3FF1D1A66803E033780BB1E52BB7D1304605B0BDE8F08538B5B7
:402B800004461A3000F072FB054604F1140000F06DFB45EA004038BD2DE9F0451D4685B007460E462A6010465C21904600F02FFB4FF0000A0446A04508D108F10108C5F833
:402BC000008040465C2100F022FB044694B1C8EB0403002B0EDD10220192103A0292384631464246CDF800A0FFF77EF970B1FFF7C6FF824628685C2100F009FBA04604461F
:402C00000028D8D10C9B0130C3F800A005B0BDE8F085F8B505460C461E461746DAB16FF01A0313700846FEF759FE16B94FF47A7608E007F11C0000F000FB6B6A5E1E36180A
:402C4000B6FBF3F63846FFF79AFF2146024633462846FFF7BDFC607BF8BD00002DE9F04FD1F8008093B0D8F808700BAD044608930E464FF0FF333946284609920F939DF88E
:402C800070A0FEF769FE10AB009338462946224611ABFFF781FFD0B1F27A109B07920FAA00930292002338462946119A0193FFF71BF9044680B1C37A13F0100F07D10D9B0F
:402CC000DDF82CB0C3EB00094FEA691906E02846FEF770FF0125A3E083468146099B002B3CD0002C33D0524B5D6912E02B687BB1AA7A6AB19A8B4A450AD19A695A4507D15A
:402D00009B68BB4204D14FF6F772328100257EE0ED68002DEAD10DF12C0C6146384622460123CDF818C0FFF774FFDDF818C018B14FF0FF3333816AE03E4B1B68DC6824B1A6
:402D400038466146109A0F9BA0472C4606E0BAF1000F03D1089A002A44D065E0089BEBB1CCB1E37A13F0010F0BD0079A12F0150F07D04FF6FA733381BAF1000F01D101252B
:402D800000E000252046FFF7FAFE074604F11C0000F053FA29E0BAF1000F45D0BAF1010F01D000251BE0ECB901F09CFF214B20221B68019282B2000C039204900094029413
:402DC0009D6838460BA9119A109BA84750B10D9ADDF82CB0C2EB00094FEA6919254628462F4602E00125002007464FF0FF33C8F81030C8F818B0A8F81C90079AC8F8040020
:402E000012F0010308BF1846C8F800707060B6F908300BA835EA230528BF0125FEF7CAFE284613B0BDE8F08F01255046DCE700BF0C0700202081FF1F70B505460C461A302B
:402E400089B200F00FFA05F11400210CBDE8704000F008BA2DE9F0470446BDF824700D469146002120229A46BDF82860DDF8208000F068F90B222046294600F036FB04F178
:402E80000E00394684F80BA000F0ECF904F11000314600F0E7F904F11600394600F0E2F904F11800314600F0DDF920464946FFF7C3FF04F11C004146BDE8F04700F0C8B90C
:402EC00007B5426803460AB910460AE081680020009048681968DB6800F092FA003818BF01200EBD2DE9F04F0368B0F9085095B0044689469F68002D40F0B7804168586879
:402F0000814203D34FF0FF312181AFE0411A8A4228BF0A46029222B94FF0FF322281029DA4E01B68002B00F0A080394610AE0CA8FEF712FD39463046FEF70EFDD4F800B031
:402F4000029ADBF80870AA4607F118030693796A4FF0FF330591099508930A96049220460CA9FFF70DF900286ED1DBF81030059901334B43626804999B1A994228BF194647
:402F80000391BB8BDBF81410013B134006980193FEF72AFFF98B656897F8342035FA01F1013A019B02EA0101CDF81CB000EB01081E46BB46BBF81C30039A9D1B954228BF4B
:402FC00015469D4211D010AF384641460022FEF7DFFD3846FEF7FBFD002835D11299484671182A4600F081FA12E0099B089A9A1890450BD008A8FFF763FF00283AD10123D0
:40300000CDF820800993CDF82C9001E001330993049B03995B1B04936368A9445B19491BAA446360039103D008F101080026C1E7049A5F46DDF81CB0002A90D108A85546E3
:40304000FFF73EFFB0B900E05546029B9D4205D0B4F9083013B94FF6F97121810CA8FEF7A9FD10A8FEF7A6FD00E00025284615B0BDE8F08F0025EBE72DE9F0418368044678
:403080000D4608460122A1699E8BFEF781FD2846B4F81C80AF68FEF79AFDF8B9013E06EA4816B6B2BE1906F11C00616800F0D0F821683046FFF7C0FE01F014FE0446A1B2E9
:4030C00006F1160000F0CEF806F11800210C00F0C9F82846BDE8F041FEF775BDBDE8F0817FB50668B0F90830B568C3B9C37A13F0110F14D029466846FEF72EFC30466946DE
:40310000FFF7BAFF064B6C4693F88030022B03D128466946FFF769F96846FEF74BFD7FBD0C07002010B5002308E0C45C11F803C0013A0133644501D0012010BD002AF4D150
:40314000104610BD70B5034602E003F8011C013A1C4622B103F003050133002DF5D193081ED04FF001354D4308E044F8105C44F80C5C44F8085C44F8045C043B032BA446DD
:4031800004F11004F1DC1C46002603E04CF80650013B0436002BF9D102F003020CEB8404002302E0E154013A0133002AFAD170BD002310F803C0CA5C624501D00120704724
:4031C0000133002AF5D110467047002300E00133C25C002AFBD11846704710B500230BE0C45C11F803C0644501D0012010BDC4186478013314B1013A002AF1DC002010BD47
:40320000A0F16103192B98BF00F0DF007047C9B203E00BB918467047013003788B42F8D1704742780178431C42EA01205A789B7842EA002043EA002070478378C27803EB11
:403240000222437803EB0222037803EB0220704703460A0A03F8011B42700A0C090E5A70997070470170090A417070474278037843EA022070470000094A0A4BC11C10B5CD
:40328000146821F0030118680919814201D9002010BD11609A685868013220189A6010BD900700207CC4FF1F08B5FFF7E5FF00B9FEE708BDFFF7E0BF30B1044A9368013BE2
:4032C00093600BB9024A1360704700BF7CC4FF1F90070020014B5860196070477CC4FF1F38B50546FFF7E0FF002104462A46FFF729FF204638BD000010B5084CA37C0BB1E6
:40330000002010BD4FF40073238201F0DDFCA37C012043F00103A37410BD00BF0C07002008B583680BB10020984708BD08B583680BB10120984708BD10B504680079A46827
:40334000A04710BD37B59DF81850046800790095E468A0473EBD08B5036800799B69984708BD036810B55B69044623B10079984708B1002000E00120607110BD10B543795C
:4033800004460BB9FFF7EDFF607910BDF7B504461F460E461546FFF7F1FF2046FFF7C6FF2A463146012320460097FFF7C5FF05462046FFF7B5FF2846FEBD10B504690919CC
:4033C000BDE81040FFF7E2BF2DE9F341044615461F460E469DF82080FFF7D0FF2046FFF7A5FF2B4631463A462046CDF80080FFF7A3FF05462046FFF793FF2846BDE8FC812B
:4034000030B504699DF80C5009190395BDE83040FFF7DABFF7B5044615461F460E46FFF7ADFF2046FFF782FF0123009331462B463A462046FFF786FF05462046FFF770FF4C
:403440002846FEBD30B504699DF80C5009190395BDE83040FFF7DEBF73B504460E461546FFF78CFF2046FFF761FF00232A460093314601332046FFF765FF05462046FFF7E8
:403480004FFF002D14BF4FF0FF3000207CBD10B504690919BDE81040FFF7DEBF30B5054685B0FFF76BFF2B6828791C694FF47B71002201ABA04708B1002001E0BDF80C003E
:4034C00005B030BD70B506460D46FFF757FF336830791C694FF47B7100222B46A047002814BF4FF0FF30002070BD11F0030F70B584460B4632D110F0030F2FD1951004469B
:40350000AC4611E053F8106CACF1040C44F8106C53F80C6C44F80C6C53F8086C44F8086C53F8046C44F8046C10341033BCF1030FE8D8AB081B0100EB030CCB1815F0030570
:403540000AD0284600215C584CF8014004310138F9D1AD00AC445B1902F0030213F0010F19462FD11CF0010F60462BD15410254610E031F8086C043D20F8086C31F8066C75
:4035800020F8066C31F8046C20F8046C31F8026C20F8026C08300831032DEAD8A108C9005B1814F003048C440AD0204600215D5A2CF8015002310138F9D16400A4441B19DD
:4035C00002F00102614610E013F8040C043A01F8040C13F8030C01F8030C13F8020C01F8020C13F8010C01F8010C18460433032A8C4601F10401E7DC32B10023C15C0CF808
:40360000031001339342F9D170BD0378E92B01D101207047EB2B01D0002070478078902814BF00200120704708B500F5FF70FFF71DFE4AF65523984214BF0020012008BD68
:4036400001EB001000F5E370FFF7F7BDF0B50D4685B01446064658B352B300210B46FFF795FE002824DB2046FFF7DEFF00B32046FFF7CBFF10B10024274616E02146FFF7A0
:40368000DFFF074604F5E570FFF7D7FD01A904463046FFF717FF5CB157B1E219FF23120AB2FBF3F2029B9A4202D81DB12C6001E04FF0FF37384605B0F0BD000073B504461C
:4036C000FFF7ECFE0646FEF7DFF80C4B05461B8AB3420DD366B1204601A92A46FFF7B6FFB0F1FF3F04D02061019B6361002400E0FF242846FEF7DEF860B27CBD0C07002002
:4037000030B5214A21F00043934287B01BDD1F4A934205DD02460B4602F04CF907B030BD02AA00F0D5F800F0030001281AD002280FD008B3DDE9020101230093DDE90423AD
:4037400001F0CAF8EAE70022002300F09DFB07B030BDDDE90201DDE9042300F095FB01F10041DBE70090DDE90423DDE9020101F0B3F801F10041D1E7DDE90201DDE90423A6
:4037800000F082FBCAE700BFFB21E93FFFFFEF7F30B5224A21F00043934287B01BDD204A934205DD02460B4602F004F907B030BD02AA00F08DF800F0030001281ED0022831
:4037C00011D010B3DDE90201DDE9042300F05CFB01F10041EAE7002300930022002301F07BF807B030BD01230093DDE90201DDE9042301F071F801F10041D7E7DDE90201A0
:40380000DDE9042300F040FBD0E70124DDE90201DDE90423009401F05FF8C7E7FB21E93FFFFFEF7F2DE9F0478AB006460F4600F063FADFF898A004469AF900300D4601338C
:403840000FD03046394601F08FF950B14FF000084FF000093046394642464B4602F0D0FC20B9204629460AB0BDE8F08716499AF8004001220023CDE90467CDE902670191D2
:403880000092089364B9CDE90689684601F098F980B1089B9BB9DDE906010AB0BDE8F0874046494642464B4602F062FB022CCDE90601EAD103F082F821230360E9E703F084
:4038C0007DF8089B0360E6E7848700002481FF1F2DE9F04F924C21F00047A7428FB00E467FDD14468F4A974226DC83A3D3E90023002940F39D8102F05DF88B4B80469F42FE
:40390000894600F083807EA3D3E9002302F052F802460B464046C4E90023494602F04AF877A3D3E9002302F045F80125C4E9020128460FB0BDE8F08F7C4A974240F38380B3
:403940007B4A974258DC3D15A5F21645A7EB05518B46824602F07CFC02F07AF98046894642464B4650465946CDE9088902F022F80022704B02F0D2F98B46824602F068FC22
:4039800002F066F98046894642464B4650465946CDE90A8902F00EF80022664B02F0BEF900220023CDE90C0102F020FC002800F06781002340464946002202F017FC002879
:4039C00014BF012302235C480221019000912A4608A8214600F07CFB002EC0F24781054606E0C2E9000100250024C2E90245002528460FB0BDE8F08F02460B4601F0DAFF3B
:403A00000025C4E90201C4E90001F1E73EA3D3E9002301F0CFFF3EA3D3E9002306460F4601F0C8FF02460B463046C4E90023394601F0C0FF36A3D3E9002301F0BBFF0125FC
:403A4000C4E90201D4E700F0FFFF33A3D3E900238046894602F062F90022384B01F0ACFF02F0F6FB054602F0F3F823A3D3E90023CDE9040102F052F902460B4640464946BF
:403A800001F098FF1EA3D3E9002382468B46DDE9040102F043F91F2DCDE902015046594650DC274B6A1E53F82230BB424AD0DDE9022301F07FFF02460B4681468846C4E903
:403AC00000234A4643465046594601F073FFDDE9022301F06FFF02460B46002EC4E9022386DA4A4608F1004301F1004184E80C00E160A0606D427BE700004054FB21F93FFE
:403B00003163621A61B4D03D0000601A61B4D03D7370032E8A19A33B83C8C96D305FE43FFB21E93F7BD90240FB21F93FFB213941FFFFEF7F000070410C8800000000E03F5B
:403B40008C870000DDE9022301F034FF88463F15C8F30A53FB1A102B8146C4E90001B0DD59A3D3E90023DDE9040102F0D7F88046894642464B465046594601F01BFFCDE98C
:403B80000601DDE906235046594601F013FF42464B4601F00FFF4EA3D3E9002380468946DDE9040102F0BAF842464B4601F002FFCDE90201DDE90223DDE9060101F0FAFE86
:403BC0000B4602468846C1F30A517F1A312F8146C4E9002374DD40A3D3E90023DDE9040102F09CF880468946DDE9060142464B4601F0E0FE82468B46DDE9060152465B4672
:403C000001F0D8FE42464B4601F0D4FE34A3D3E9002380468946DDE9040102F07FF842464B4601F0C7FECDE90201504659463EE701F0C2FE2E4B80469F42894622D02AA321
:403C4000D3E9002301F0B8FE02460B464046C4E90023494601F0AEFE23A3D3E9002301F0ABFE4FF0FF35C4E90201C1E66268E36802F1004203F1004345426260E360B7E6F0
:403C80000323A0E610A3D3E9002301F095FE10A3D3E9002306460F4601F08EFE02460B463046C4E90023394601F084FE08A3D3E9002301F081FE4FF0FF35C4E9020197E627
:403CC000DDE906ABFDE600BF0000601A61B4D03D7370032E8A19A33B0000002E8A19A33BC14920259A837B393163621A61B4D03DFB21F93FAFF300802DE9F041604E0C46BC
:403D0000B6460E40764505460B4600F098800029024676DD5FEA215E00F08180AEF2FF3EC3F313031EF0010F43F480135ED100273C46D10F01EB43034FEA6E0E52001620A5
:403D40004FF4001165189D424FEAD2764FEA420202DC5B1B6C180F44013806EB43034FEA5101EFD1844620264FF000410AE0A34220D0D50F013E4FEA510105EB43034FEA43
:403D8000420220D09C420CEB0105F0DA002D05EB010C09DBA0461B1B954288BF03F1FF334446521B0844E4E7BCF1000FF2DB04F10108F0E7954217D8002D05EB010C48DB3D
:403DC00098460023ECE7134315D140087B1003F17F5303F50013FA0703EB0E57394648BF40F00040BDE8F0811C46C2E7D10F01EB430352009BE7411C31D000F00103184410
:403E0000E3E721F000460643ECD079BB8E46D30AAEF1150E5205002BF9D0DC0222D400215B00D80201F10101FAD5C1F10100C1F1200422FA04F4234386448A406EE7024649
:403E40000B4601F06BFF2A46234601F0B5FDBDE8F081BCF1000FAADAA0460023A0E701373046B3E7202401200021E2E702460B4601F0A0FD02460B4602F07AF8B2E700BF21
:403E80000000F07F000000002DE9F04F21F00047B7F1795F85B00C4692469B4605466BDA02F0D6F9002800F0E7802A4623462846214601F033FF74A3D3E9002380468946FA
:403EC00001F02CFF72A3D3E9002301F075FD42464B4601F023FF70A3D3E9002301F06AFD42464B4601F01AFF6DA3D3E9002301F063FD42464B4601F011FF6BA3D3E900236F
:403F000001F058FD42464B4601F008FF68A3D3E9002301F051FD42464B4601F0FFFECDE90001404649460022634B01F0F7FEDDE9002306460F464046494601F0EFFE524663
:403F4000804689465B462846214601F0E7FE02460B464046494601F02DFD02460B463046394601F027FD02460B460020534901F021FD05B0BDE8F08F02460B4601F0CEFE61
:403F800041A3D3E900238046894601F0C7FE40A3D3E9002301F010FD42464B4601F0BEFE3DA3D3E9002301F005FD42464B4601F0B5FE3BA3D3E9002301F0FEFC42464B463D
:403FC00001F0ACFE38A3D3E9002301F0F3FC42464B4601F0A3FE36A3D3E9002301F0ECFC4B46424601F09AFE354BCDE900019F4297DD344B00229F4238DCA7F500130020BD
:404000002E4916461F4601F0D5FCCDE90201404649460022284B01F081FE32463B4601F0C9FCDDE9002306460F464046494601F075FE5246804689465B462846214601F06D
:404040006DFE02460B464046494601F0B3FC02460B463046394601F0ADFC02460B46DDE9020101F0A7FC05B0BDE8F08F164B0026CDE90223154FCAE71049002005B0BDE846
:40408000F08F00BFAFF30080D43888BEE9FAA8BDC4B1B4BD9EEE213EAD529C804F7E923E9015CB19A001FA3E7751C1166CC1563F4C5555555555A53F0000E03F0000F03F93
:4040C0003233D33F0000E93F0000E73F0000D23F2DE9F04F9E467E4DD41E85FB0465E417C4EBA504ADF51D7D24EAE4742546A69E0D940C93E343774C03EB430354F8264058
:4041000002EBC303274609940EF1FF3426460394F41904900A910893A5EB060516D42C44013422AEA79F08E057F8250001F090FD0135A542E6E9020108D0002DF4DA0135A4
:4041400000200021A542E6E90201F6D1099B002B31DB099A0C9B74A901EBC20BC3EB4373039A24A9DB0001EBC20800930DF5E479039B002BC0F297814446049B0026A3F1BC
:40418000080A009B002708EB0305FAE9022374E8020101F0C3FD02460B463046394601F00BFCAC4206460F46EFD1E9E90267D94508F10808DCD1099B10A99B4603F180433F
:4041C000013B9B001A1D0A440B440F920E934FEACB039CA91A460693BBF1000F0B4453E9284528DD0DF5E87A0AEB02060FAF0022394B2046294601F091FD02F029F801F0B8
:4042000027FD0022354B8046894601F087FD02460B462046294601F0CDFB02F019F876E9022347F8040F4946404601F0C5FB564504460D46DBD1DDF82090204629464A461A
:4042400000F0C2FC00224FF07F5304460D4601F065FD00F0FDFB0022214B01F05FFD02460B462046294601F0A5FB04460D4601F0EFFF804601F0ECFC02460B462046294622
:404280004C4601F097FB002C06460F4640F3F1800BF1FF3110AB53F82130C9F1180043FA00F202FA00F55D1B10A8C9F1170340F8215090441D41002D3FDDBBF1000F08F127
:4042C000010840F38482002214460FA912E000BFABAAAA2A148900000000703E0000704100002040C3F180700BB108600124013293450DDD51F8043F002CF3D0C3F1FF13EF
:40430000013203F57F4393450B604FF00104F1DC089B002B0EDD012B00F0B380022B09D10BF1FF3210AB53F8223010A9C3F3150341F82230022D00F083803046394600225D
:40434000002301F053FF002800F0C980099B0BF1FF3A53450DDC10AB0F9803EB8B03002253F8041D834242EA0102F9D1002A40F01482099B10AA013B52F82330002B40F070
:4043800024820E9A012352F8041D01330029FAD05B441A460B930BF1010393424DDC0D9A4FF0000803EB02090B9A0C9B09F180495B44CBEB020BA79A09F1FF3902EB89021B
:4043C00000924FEACB02DB00059224AA02EB030B0793069B74AA02EB030A009B002653F8040F0027009301F033FC039BEBE80201002B1BDB079B03EB0804069B08EB0305D1
:4044000024AB1C441D44049BA3F10809F9E9022374E8020101F082FC02460B463046394601F0CAFAAC4206460F46EFD1059B08F108089845EAE90267CFD1DDF82CB0C6E682
:4044400032463B460020BF4901F0B4FA06460F46002C3FF472AF089A0020BA4900F0B4FB02460B463046394601F0A4FA06460F4663E711D10BF1FF3310AA52F82350ED1566
:4044800019E70BF1FF3210AB53F8223010A9C3F3160341F822304DE70022AB4B01F0C4FE58B9054649E700260027E9E90267D94508F108087FF45CAE7DE6BBF1000F08F196
:4044C0000108C8BF02253FF7FEAE32463B4600209C4901F06FFA022506460F462DE7089B30465A4239460395CDF8148000F06CFB0022964B04460D4601F096FE002800F036
:40450000E1810022924B2046294601F007FC01F09FFE064601F09CFB00228C4B01F0FEFB0B4602462946204601F044FA01F090FE089B0BF1010A1833089310AB43F82B003F
:4045400043F82A60089A00207E4900F03DFBBAF1000F04460D46C0F2CA800AF101034FEAC30874AF10AA009302EB830907EB080659F8040D01F06CFB22462B4601F0CEFB39
:40458000002266E90201724B2046294601F0C6FBBE4204460D46EBD1A8F1080806EB08039B460DF59879CDF818A0DDF824A04FF00008CDF81090BAF1000FC0F29580B8F165
:4045C000000FC0F29180DFF88C915D4600260027002401E0444510DCF9E90223F5E8020101F09CFB02460B463046394601F0E4F90134A24506460F46ECDA049BABF1080BEF
:4046000003EBC803C3E90067009B08F101089845D1D1A69BDDF818A0DDF81090032B3BD8DFE813F0410004000400D70000273E46009B09EBC304384674E90223314601F0BB
:40464000BBF94C4507460E46F5D1039B002B00F08B80D9E900010A9D334606F100463A466E602F6001F0A6F9BAF1000F03460CDD01261C46F9E90223204601F09DF901369D
:40468000B2450346F5DA039A0AB101F100411C460D460A9BC3E90245059B03F007000DF51D7DBDE8F08F00231946009A09EBC2091C4679E90223204601F07EF90AF1FF3AF3
:4046C000BAF1FF3F0346F3D1039A0AB101F100411C460D460A9BC3E90045059B03F007000DF51D7DBDE8F08F0026002785E7A69B032BD1D8DFE803F04E3030020DF5987946
:40470000039A00231E46002A00F0C8800A9FD9F80800D9F80440D9F80C203B61059BD9F8001006F1004604F1004402F10042B86003F007007E617C60FA6039600DF51D7D3B
:40474000BDE8F08F0000F03F0000E03F000070410000703E20890000039B00273E460DF59879002B7FF475AFD9E9000135463C4633460A9E3A46C6E9004501F01BF9BAF19C
:40478000000F03463FF774AF1C460D460A9BC3E9024581E70023194696E7089A10AB53F82A30183A0395CDF814800892002B7FF4C9AE10AB03EB8A0353F8041D0AF1FF3ACA
:4047C000183A0029F8D00892BCE60123E0E500249EE5BAF1000F93DD4FEACA0809EB08039B46D3E900677BE9022330463946CDE9002301F0E1F804460D46DDE90001224685
:404800002B4601F0D7F802460B463046394601F0D3F8CB4526462F46CBE90201CBE90045E1D1BAF1010F7FF76BAF09EB08039A46D3E900670DF59C7B7AE902231046194607
:4048400032463B46CDE9000101F0B6F804460D46DDE9000122462B4601F0ACF832463B4601F0AAF8DA4526462F46CAE90201CAE90045E1D100231E4608F108044C4450AD12
:40488000184674E90223314601F096F8AC4203460E46F5D1039A002A7FF438AFD9E90045D9E90289184631460A9A059BC2E9040103F00700C2E90045C2E902890DF51D7DD7
:4048C000BDE8F08F2046294601F0C2FC10ABDA4643F82B0036E600BF2DE9F04F21F00046B6F1795F85B00C4690469946054604DA01F0AEFC002800F083802A462346284667
:40490000214601F00BFA2A46234606460F4601F005FA3FA3D3E9002382468B463046394601F0FCF93CA3D3E9002301F043F832463B4601F0F3F93AA3D3E9002301F03CF8DA
:4049400032463B4601F0EAF937A3D3E9002301F031F832463B4601F0E1F935A3D3E9002301F02AF80E9BCDE900019BB3404649460022334B01F0D2F9DDE90023CDE9020148
:404980005046594601F0CAF902460B46DDE9020101F010F832463B4601F0C0F942464B4601F008F824A3D3E9002306460F465046594601F0B3F902460B463046394600F06F
:4049C000FBFF02460B462846214600F0F3FF05B0BDE8F08FDDE900233046394601F09EF915A3D3E9002300F0E5FF52465B4601F095F92A46234600F0DFFF05B0BDE8F08F8B
:404A00002846214605B0BDE8F08F00BFAFF300807CD5CF5A3AD9E53DEB9C2B8AE6E55A3E7DFEB157E31DC73ED561C119A0012A3FA6F810111111813F495555555555C53F60
:404A40000000E03FAFF3008021F00041704700BF2DE9F047C1F30A58A8F2FF36132E0B4604460D460246894607461DDC002E40DBDFF8F08048FA06F808EA010E5EEA020252
:404A800017D035A3D3E9002300F096FF0022002301F0D4FB20B1002D40DB29EA0805002738462946BDE8F087332E06DDB6F5806F2FD020461946BDE8F087A8F213424FF079
:404AC000FF3A2AFA02FA1AEA000FF2D022A3D3E9002300F071FF0022002301F0AFFB0028DED0002D1FDB4D4627EA0A0738462946D8E719A3D3E9002300F05EFF0022002319
:404B000001F09CFB0028CBD0002D1ADB00273D46C6E702460B4600F04FFFCCE74FF4801333419944B9E7142E08D0C8F5866808F10308012303FA08F31F19D4D309F1010998
:404B4000D1E725F00042064B224318BF1D460027A6E700BFAFF300809C7500883CE4377E0000F0BFFFFF0F0010B431F0004408D0114BA1F580129A4208D804205DF8044B6E
:404B8000704718B902205DF8044B704701F1FF41094B01F5E0019942EFD9B4F5801F01D20320EBE7054B9C4201D00020E6E7B0FA80F04009E2E700BFFFFFDF7F0000F07F3E
:404BC0000020704700000000F8B5C1F30A5604460D460B46174616BB21F00043034332D00022314B01F09AF8304A044697420D460B4637DB40F2FE72C1F30A56363E3E4445
:404C0000964215DD24A1D1E9000122462B4600F053F821A3D3E9002301F080F8F8BD40F2FF72964224D040F2FE723E449642E9DC002E09DD23F0FF4323F4E00343EA06553A
:404C400020462946F8BDF8BD16F1350F15DA4CF250339F42D6DC12A1D1E9000122462B4600F02AF80EA3D3E9002301F057F8F8BD02460B4600F0A0FEF8BD23F0FF4323F441
:404C8000E003363643EA0655204629460022084B01F044F8F8BD00BF9C7500883CE4377E59F3F8C21F6EA50100005043B03CFFFF0000903CAFF3008003F0004321F0004297
:404CC00043EA0201704700BF08B504484FF48051FEF700FB0248FDF721F808BD88C4FF1FB08900004FF40410704700BF4FF6FF7070470000014B1868704700BF88D4FF1F4E
:404D000000487047D089000000F018BD37B501220DF10701054600F017FD9DF80740FF2C14BF0A240724284601220DF1070100F00BFD9DF80700FF2803D1013CE4B2002C9A
:404D4000F1D13EBD37B50469857828460DF10701012200F0F9FC9DF807300BB1002003E0013CF2D14FF0FF303EBD37B54FF0FF3305460C468DF8073006E028460DF10701A0
:404D8000012200F0EFFC013C002CF6DC3EBD000038B5094C2368032B02DD4FF0FF3509E0DDB2013323601420FEF79AFA04EB850460608570284638BD88D4FF1F08B5034B71
:404DC0004FF400711B68984708BD00BF2881FF1F4FEAD20CACEBD103CCF10F0C10B501336044002410F801CB013B4CEA0424F9D101F00703511A02228A40DC40013A04EA66
:404E0000020010BD7FB5130E85788DF80530130C01F03F018DF80630130A41F040018DF8073000238DF808208DF804101A4601A911F802C000215B00DBB283EA0C0E1EF065
:404E4000800F18BF83F009030131082904D04FEA4C0C5FFA8CFCEEE70132052AE7D15B0043F001038DF809308678C4680122304603A900F069FC9DF80C30FF2B04D00CB90D
:404E8000FF2009E0013CF1E7284601A9062200F069FC2846FFF73AFF04B070BDF7B5847806460F4620460121FFF75FFF204600F0E5FB304609210022FFF7A4FF8DF8070080
:404EC00028BBF6680546012220460DF1060100F03BFC9DF80630FE2B06D0FC2B04D00135ADB2B542EFD112E00DF1070520463946102200F029FC29462046012200F024FC30
:404F000029462046012200F01FFC002500E0FF25204600F0BDFB20460121FFF726FF2846FEBD00002DE9F04F9B46494B89B003EB800305925C684A02029103924FF00309DD
:404F4000029AA578E678039B2846022E08BF13461E4600F09DFB01212846FFF706FFBBF1010F0CBF4FF0110A4FF0120A284600F085FB204651463246FFF744FF002851D135
:404F8000059F5E46A378E268B44604924FF000081E460FE0012230460DF11F01CDF804C000F0D2FB9DF81F20DDF804C0FE2A05D008F10108049B9845ECD333E02846394676
:404FC0004FF40072664600F0BFFB0222284607A900F0BAFB9DF81C30384601939DF81D80FFF7ECFE4FF6FF729042019B0CD048EA0328404508D0BAF1120F13D120460C21BD
:405000000022FFF7FFFE0DE0013E02D007F50077B8E7BAF1120F07D120460C213246FFF7F1FE01E04FF0FF36284600F031FB28460121FFF79AFE3EB1B9F1000F02D009F146
:40504000FF397DE74FF0FF36304609B0BDE8F08F88D4FF1F2DE9F04F99464C4B87B0029203EB80039DF840205D68009103926B78002B40F085804B0201930327009BAC785F
:40508000EE78019A2046022E08BF1A46164600F0FFFA01212046FFF768FEB9F1010F0CBF4FF0180A4FF0190A204600F0E7FA284651463246FFF7A6FE8DF81700002850D18E
:4050C00020460121FFF751FE029ECB46B8463046FFF774FE0DF11707BAF1180F0CBFFE23FC2301228DF817308DF81500030A394620468DF8143000F035FB204631464FF4D9
:40510000007200F02FFB0222204605A900F02AFB01222046394600F017FB9DF8173003F01F03052B1CD12846FFF70CFEC0B9039A0AB906F50076BBF1010BC8D1BAF1190FA2
:40514000474611D106A96FF00203204601F8013D012200F007FB2846FFF7F4FD20B100E047464FF0FF3600E00026204600F090FA20460121FFF7F9FD26B10FB1013F7DE75F
:405180004FF0FF36304607B0BDE8F08F88D4FF1F2DE9F04F877887B0044638460D4600F06DFA20463A210022FFF72CFE064638B1384600F06DFA38460121FFF7D6FD58E005
:4051C0000DF1140804224146384600F0BDFA4046FEF727F88046384600F05AFA01213846FFF7C3FDB8F1000F28F07F02B8BF4FEA987BD2B240F272634FEA1828B8BF0BF0C1
:40520000010B1FFA88F8002A14BF1A460022012111EA080F05D10136F6B24900102E89B2F6D140F27260824233460DD06422724302F5FA6208E011EA080F07D049000133DE
:40524000013689B2DBB2F6B20F2EF4D964214B434FF6FE7103F5FA6302EA01014FF6FC72384603EA020200F04BFA10F0FF0F40F099804FF0FF3092E028467E217F22FFF741
:40528000A7FD8246EB78DFF82C8103F0030203F0780308EBD30358F822101B7C3846594389B200F001FA0646002877D06B7803F00702DB1003F00F0308EB82024344126A0F
:4052C00093F810800292B8F1000F67D0A978284603911C221A21FFF77BFD0190BAF1000F1FD1502153222846FFF772FD4FF0010909FA00F92F2131222846FFF769FD1FFA47
:4053000089F982463E21284649224FEA5929FFF75FFD0AF1020A09FA0AF9013000FB09F910E0BAF1010F01D0012038E0284630214522FFF74DFD4FEA8029BBF1000F01D01A
:405340000223E37008FB06F2029B0399B2FBF3F2642303FB01225A437343D208DB089A4294BFE260E360FA235E43019BF6089A400C21B24294BF2261266128460D22FFF740
:4053800027FD0546384600F08DF94FF4007128436070A180C4F80890002000E0FF2007B0BDE8F08FE378A778012B3FF465AF4FF0000A67E768890000F0B5857887B0044694
:4053C0004FF4C871284600F06FF9B0F5C87F00F2CC804CF25033E3600026284600F058F90A212846FFF7C1FC624B93E8030001902846ADF8081000F041F9062201A92846CB
:4054000000F0B0F92846FFF781FC0746284600F03FF901212846FFF7A8FC17F0010F03D10136052ED9D1A0E0284600F027F9082120464FF4D572FFF7E5FC10F0040F52D0C3
:40544000284600F025F9A5784FF4FA66284600F015F9002237212046FFF7D4FC28460121FFF783FC292100222046FFF7CBFC0746284600F00DF928460121FFF776FC17B9D1
:405480000123E3701EE017F0040F01D1013EDDD14FF4FA66284600F0F1F8012100222046FFF7B0FC0746284600F0F2F828460121FFF75BFC0FB9E77004E0012F55D1013E5E
:4054C000E8D152E001AD20462946FFF7E7FC00284BD120462946FFF75BFEC0B2002844D10123237043E00422A07805A900F02CF9284600F0CDF89DF81730AA2B35D19DF804
:40550000163003F00F03012B2FD1A5784FF4FA66284600F0B3F8002237212046FFF772FC28460121FFF721FC29214FF080422046FFF768FC0746284600F0AAF8284601215C
:40554000FFF713FC0FB1013EE2D101AE20463146FFF7A4FC48B90125E57020463146FFF717FEC0B208B9257001E04FF0FF3007B0F0BD00BFA889000010B5084B03EB8003FA
:405580005C6823783BB9FFF7BFFB20B12046BDE81040FFF711BF4FF0FF3010BD88D4FF1F38B51D46154BA1F57B7103EB80035C68072918D8DFE801F00A171717040417197B
:4055C000204600211422FDF7BDFD0CE0237833B92046FFF7F1FE10B14FF0FF3038BDA3882B81A3686B60002038BD2046FDF764FE024B00201A68013A1A6038BD88D4FF1FCD
:4056000010B580B9104B1B78EBB901240E4B1C7000F038F93B20214600F050F900F024F900F014F910BD084B1B7863B90124064B1C7000F027F93B20214600F03FF900F0EF
:4056400013F900F003F910BD9CD4FF1F08B550B9084600F0B7F800F0A9F810F0010FFAD000F0BCF808BD084600F0ACF800F09EF810F0010FFAD000F0B1F808BD08B510B92A
:4056800000F088F908BD002000F084F908BD00BF08B518B9012000F07DF908BD012000F079F908BD0020704738B50D46B1F5C87F04D342F6E063994203D804E04FF4C87511
:4056C00001E042F6E0656C00A4B245F6C053B3FBF4F448B900F0D6F8601E80B2012100F0EDF800F0C1F808E000F0CCF8601E80B2012100F0E3F800F0B7F8284638BD00BF9D
:40570000032809D840F6E44399420FD840F6E3439A420DD80020704740F6E443994209D840F6E3439A4207D8002070470020704701207047002070470120704708B5FFF732
:405740005FFF022008BD00BFF8B507460D4614466E1C3846FF21FFF779FF28703546013CF6D1F8BD70B5064614464D1C30460978FFF76CFF2946013CF7D170BD08B5FBF740
:405780002BFD094A137843F02003137002F20312137843F010031370013A137843F010031370FBF71DFD08BD94640040014B1878704700BF67650040014B1878704700BF65
:4057C00066650040034B1B7813F0040FFAD0024B187070476765004045640040014B1878704700BF5564004008B501E00A4B1B780A4B1B7813F0200FF8D1FBF7EDFC084B7A
:405800001A7842F001021A701A7802F0FE021A70FBF7E6FC08BD00BF55640040666500409564004008B50F22064B1A70FFF7DCFFFFF7BCFFFFF7C0FF0023034A1370013A46
:40584000137008BD846400408765004008B5054B1B7823B9FFF7E6FF0122024B1A70FFF78DFF08BD9DD4FF1F054A137843F0010313701032137843F001031370704700BFD4
:40588000A2430040054A137803F0FE0313701032137803F0FE031370704700BFA2430040014B188880B2704780400040024B187800F00700704700BF8240004070B5054602
:4058C0000E46FFF7F3FF0446FFF7EAFF854256D02B4B1B7803F0010294B900B185B938B9284B1D80284A137803F0BF03137070BD254A137843F040031370224B1D8070BD8E
:4059000022B3002321490B7001240F310C7004310B700C390B7803F07F030B701A4B1B7813F0080F00D08DB9194B18800721013B1970164B1B7813F0010FFAD110490B7882
:4059400003F0FE030B700021104B19700C4B1B7813F0010F0DD00E4B1D800EB1032200E001220A4B1A70094B1B7813F0010FFAD170BD044B1D8002490B7813430B7070BD73
:40598000A243004080400040824000400140004002400040044A137803F0BF03800100F040001843107070473051004081F0004102E000BF83F0004330B54FEA41044FEA86
:4059C000430594EA050F08BF90EA020F1FBF54EA000C55EA020C7FEA645C7FEA655C00F0E2804FEA5454D4EB5555B8BF6D420CDD2C4480EA020281EA030382EA000083EAE0
:405A0000010180EA020281EA0303362D88BF30BD11F0004F4FEA01314FF4801C4CEA113102D0404261EB410113F0004F4FEA03334CEA133302D0524263EB430394EA050F31
:405A400000F0A780A4F10104D5F1200E0DDB02FA0EFC22FA05F2801841F1000103FA0EF2801843FA05F359410EE0A5F120050EF1200E012A03FA0EFC28BF4CF0020C43FADB
:405A800005F3C01851EBE37101F0004507D54FF0000EDCF1000C7EEB00006EEB0101B1F5801F1BD3B1F5001F0CD349085FEA30004FEA3C0C04F101044FEA445212F5800F09
:405AC00080F09A80BCF1004F08BF5FEA500C50F1000041EB045141EA050130BD5FEA4C0C404141EB010111F4801FA4F10104E9D191F0000F04BF01460020B1FA81F308BFEC
:405B00002033A3F10B03B3F120020CDA0C3208DD02F1140CC2F10C0201FA0CF021FA02F10CE002F11402D8BFC2F1200C01FA02F120FA0CFCDCBF41EA0C019040E41AA2BF4B
:405B400001EB0451294330BD6FEA04041F3C1CDA0C340EDC04F11404C4F1200220FA04F001FA02F340EA030021FA04F345EA030130BDC4F10C04C4F1200220FA02F001FACB
:405B800004F340EA0300294630BD21FA04F0294630BD94F0000F83F4801306BF81F480110134013D4EE77FEA645C18BF7FEA655C29D094EA050F08BF90EA020F05D054EAD0
:405BC000000C04BF1946104630BD91EA030F1EBF0021002030BD5FEA545C05D14000494128BF41F0004130BD14F580043CBF01F5801130BD01F0004545F0FE4141F4700171
:405C00004FF0000030BD7FEA645C1ABF194610467FEA655C1CBF0B46024650EA013406BF52EA033591EA030F41F4002130BD00BF90F0000F04BF0021704730B54FF4806476
:405C400004F132044FF000054FF0000150E700BF90F0000F04BF0021704730B54FF4806404F1320410F0004548BF40424FF000013EE700BF42004FEAE2014FEA31014FEA2A
:405C800002701FBF12F07F4393F07F4F81F06051704792F0000F14BF93F07F4F704730B54FF4607401F0004521F0004120E700BF50EA010208BF704730B54FF000050AE022
:405CC00050EA010208BF704730B511F0004502D5404261EB41014FF4806404F132045FEA915C3FF4DCAE4FF003025FEADC0C18BF03325FEADC0C18BF033202EBDC02C2F156
:405D0000200300FA03FC20FA02F001FA03FE40EA0E0021FA02F11444C1E600BF70B54FF0FF0C4CF4E06C1CEA11541DBF1CEA135594EA0C0F95EA0C0F00F0DEF82C4481EAB7
:405D4000030621EA4C5123EA4C5350EA013518BF52EA033541F4801143F4801338D0A0FB02CE4FF00005E1FB02E506F00042E0FB03E54FF00006E1FB03569CF0000F18BF1A
:405D80004EF0010EA4F1FF04B6F5007F64F5407404D25FEA4E0E6D4146EB060642EAC62141EA55514FEAC52040EA5E504FEACE2EB4F1FD0C88BFBCF5E06F1ED8BEF1004F69
:405DC00008BF5FEA500E50F1000041EB045170BD06F0004646EA010140EA020081EA0301B4EB5C04C2BFD4EB0C0541EA045170BD41F480114FF0000E013C00F3AB8014F1CD
:405E0000360FDEBF002001F0004170BDC4F10004203C35DA0C341BDC04F11404C4F1200500FA05F320FA04F001FA05F240EA020001F0004221F0004110EBD37021FA04F6C9
:405E400042EB06015EEA430E08BF20EAD37070BDC4F10C04C4F1200500FA04F320FA05F001FA04F240EA020001F0004110EBD37041F100015EEA430E08BF20EAD37070BDDB
:405E8000C4F1200500FA05F24EEA020E20FA04F301FA05F243EA020321FA04F001F0004121FA04F220EA020000EBD3705EEA430E08BF20EAD37070BD94F0000F0FD101F0D0
:405EC0000046400041EB010111F4801F08BF013CF7D041EA060195F0000F18BF704703F00046520043EB030313F4801F08BF013DF7D043EA0603704794EA0C0F0CEA135516
:405F000018BF95EA0C0F0CD050EA410618BF52EA4306D1D181EA030101F000414FF0000070BD50EA410606BF1046194652EA430619D094EA0C0F02D150EA013613D195EADF
:405F40000C0F05D152EA03361CBF104619460AD181EA030101F0004141F0FE4141F470014FF0000070BD41F0FE4141F4780170BD70B54FF0FF0C4CF4E06C1CEA11541DBFA0
:405F80001CEA135594EA0C0F95EA0C0F00F0A7F8A4EB050481EA030E52EA03354FEA013100F088804FEA03334FF0805545EA131343EA12634FEA022245EA111545EA1065F6
:405FC0004FEA00260EF000419D4208BF964244F1FD0404F5407402D25B084FEA3202B61A65EB03055B084FEA32024FF480104FF4002CB6EB020E75EB030E22BFB61A754636
:4060000040EA0C005B084FEA3202B6EB020E75EB030E22BFB61A754640EA5C005B084FEA3202B6EB020E75EB030E22BFB61A754640EA9C005B084FEA3202B6EB020E75EB41
:40604000030E22BFB61A754640EADC0055EA060E18D04FEA051545EA16754FEA06164FEAC30343EA52734FEAC2025FEA1C1CC0D111F4801F0BD141EA00014FF000004FF0D6
:40608000004CB6E711F4801F04BF01430020B4F1FD0C88BFBCF5E06F3FF6AFAEB5EB030C04BFB6EB020C5FEA500C50F1000041EB045170BD0EF0004E4EEA113114EB5C04CB
:4060C000C2BFD4EB0C0541EA045170BD41F480114FF0000E013C90E645EA060E8DE60CEA135594EA0C0F08BF95EA0C0F3FF43BAF94EA0C0F0AD150EA01347FF434AF95EAF9
:406100000C0F7FF425AF104619462CE795EA0C0F06D152EA03353FF4FDAE1046194622E750EA410618BF52EA43067FF4C5AE50EA41047FF40DAF52EA43057FF4EBAE12E7BA
:406140004FF0FF3C06E000BF4FF0010C02E000BF4FF0010C4DF804CD4FEA410C7FEA6C5C4FEA430C18BF7FEA6C5C1BD001B050EA410C0CBF52EA430C91EA030F02BF90EA29
:40618000020F0020704710F1000F91EA030F58BF994208BF90422CBFD8176FEAE37040F0010070474FEA410C7FEA6C5C02D150EA013C07D14FEA430C7FEA6C5CD6D152EAEC
:4061C000033CD3D05DF8040B704700BF8446104662468C461946634600E000BF01B5FFF7B7FF002848BF10F1000F01BD4DF808EDFFF7F4FF0CBF012000205DF808FB00BFFD
:406200004DF808EDFFF7EAFF34BF012000205DF808FB00BF4DF808EDFFF7E0FF94BF012000205DF808FB00BF4DF808EDFFF7CEFF94BF012000205DF808FB00BF4DF808ED5E
:40624000FFF7C4FF34BF012000205DF808FB00BF4FEA410212F5001215D211D56FF47873B3EB625212D94FEAC12343F0004343EA505311F0004F23FA02F018BF404270475B
:406280004FF00000704750EA013005D111F0004008BF6FF0004070474FF00000704700BF4A0011D212F5001211D20DD56FF47873B3EB62520ED44FEAC12343F0004343EA47
:4062C000505323FA02F070474FF00000704750EA013002D14FF0FF3070474FF0000070474FEA4102B2F1E04324BFB3F5001CDCF1FE5C0DD901F0004C4FEAC0024CEA5070C2
:40630000B2F1004F40EB830008BF20F00100704711F0804F21D113F13872BCBF01F00040704741F480114FEA5252C2F11802C2F1200C10FA0CF320FA02F018BF40F00100EF
:406340004FEAC1234FEAD32303FA0CFC40EA0C0023FA02F34FEA4303CCE77FEA625307D150EA01331EBF4FF0FE4040F44000704701F0004040F0FE4040F40000704700BF20
:4063800080F0004002E000BF81F0004142001FBF5FEA410392EA030F7FEA226C7FEA236C6AD04FEA1262D2EB1363C1BFD218414048404140B8BF5B42192B88BF704710F04C
:4063C000004F40F4000020F07F4018BF404211F0004F41F4000121F07F4118BF494292EA030F3FD0A2F1010241FA03FC10EB0C00C3F1200301FA03F100F0004302D549426A
:4064000060EB4000B0F5000F13D3B0F1807F06D340084FEA310102F10102FE2A51D2B1F1004F40EBC25008BF20F0010040EA03007047490040EB000010F4000FA2F10102C3
:40644000EDD1B0FA80FCACF1080CB2EB0C0200FA0CF0AABF00EBC25052421843BCBFD0401843704792F0000F81F4000106BF80F400000132013BB5E74FEA41037FEA226C35
:4064800018BF7FEA236C21D092EA030F04D092F0000F08BF0846704790EA010F1CBF0020704712F07F4F04D1400028BF40F00040704712F100723CBF00F50000704700F022
:4064C000004343F0FE4040F4000070477FEA226216BF08467FEA23630146420206BF5FEA412390EA010F40F4800070474FF0000304E000BF10F0004348BF40425FEA000C06
:4065000008BF704743F0964301464FF000001CE050EA010208BF70474FF000030AE000BF50EA010208BF704711F0004302D5404261EB41015FEA010C02BF8446014600207B
:4065400043F0B64308BFA3F18053A3F50003BCFA8CF2083AA3EBC25310DB01FA02FC634400FA02FCC2F12002BCF1004F20FA02F243EB020008BF20F00100704702F12002D7
:4065800001FA02FCC2F1200250EA4C0021FA02F243EB020008BF20EADC7070474FF0FF0C1CEAD0521EBF1CEAD15392EA0C0F93EA0C0F6FD01A4480EA010C400218BF5FEA56
:4065C00041211ED04FF0006343EA501043EA5111A0FB01310CF00040B1F5000F3EBF490041EAD3715B0040EA010062F17F02FD2A1DD8B3F1004F40EBC25008BF20F001009C
:40660000704790F0000F0CF0004C08BF49024CEA502040EA51207F3AC2BFD2F1FF0340EAC250704740F400004FF00003013A5DDC12F1190FDCBF00F000407047C2F100023B
:40664000410021FA02F1C2F1200200FA02FC5FEA310040F1000053EA4C0308BF20EADC70704792F0000F00F0004C02BF400010F4000F013AF9D040EA0C0093F0000F01F055
:40668000004C02BF490011F4000F013BF9D041EA0C018FE70CEAD15392EA0C0F18BF93EA0C0F0AD030F0004C18BF31F0004CD8D180EA010000F00040704790F0000F17BFB3
:4066C00090F0004F084691F0000F91F0004F14D092EA0C0F01D142020FD193EA0C0F03D14B0218BF084608D180EA010000F0004040F0FE4040F40000704740F0FE4040F45F
:40670000400070474FF0FF0C1CEAD0521EBF1CEAD15392EA0C0F93EA0C0F69D0A2EB030280EA010C49024FEA402037D04FF0805343EA111143EA10130CF000408B4238BFDC
:406740005B0042F17D024FF4000C8B4224BF5B1A40EA0C00B3EB510F24BFA3EB510340EA5C00B3EB910F24BFA3EB910340EA9C00B3EBD10F24BFA3EBD10340EADC001B012B
:4067800018BF5FEA1C1CE0D1FD2A3FF650AF8B4240EBC25008BF20F0010070470CF0004C4CEA50207F32C2BFD2F1FF0340EAC250704740F400004FF00003013A37E792F0B3
:4067C000000F00F0004C02BF400010F4000F013AF9D040EA0C0093F0000F01F0004C02BF490011F4000F013BF9D041EA0C0195E70CEAD15392EA0C0F08D142027FF47DAFED
:4068000093EA0C0F7FF470AF084676E793EA0C0F04D14B023FF44CAF08466EE730F0004C18BF31F0004CCAD130F000427FF45CAF31F000437FF43CAF5FE700BF4FF0FF3C8C
:4068400006E000BF4FF0010C02E000BF4FF0010C4DF804CD4FEA40024FEA41037FEA226C18BF7FEA236C11D001B052EA530C18BF90EA010F58BFB2EB030088BFC81738BF04
:406880006FEAE17018BF40F0010070477FEA226C02D15FEA402C05D17FEA236CE4D15FEA412CE1D05DF8040B704700BF844608466146FFE70FB5FFF7C9FF002848BF10F1D5
:4068C000000F0FBD4DF808EDFFF7F4FF0CBF012000205DF808FB00BF4DF808EDFFF7EAFF34BF012000205DF808FB00BF4DF808EDFFF7E0FF94BF012000205DF808FB00BF59
:406900004DF808EDFFF7D2FF94BF012000205DF808FB00BF4DF808EDFFF7C8FF34BF012000205DF808FB00BF4FEA4002B2F1FE4F0FD34FF09E03B3EB12620DD94FEA0023E8
:4069400043F0004310F0004F23FA02F018BF404270474FF00000704712F1610F01D1420205D110F0004008BF6FF0004070474FF00000704742000ED2B2F1FE4F0BD34FF05C
:406980009E03B3EB126209D44FEA002343F0004323FA02F070474FF00000704712F1610F01D1420202D14FF0FF3070474FF00000704700BF002100F09FBE0000014B186849
:4069C000704700BF8C81FF1F0E4B70B51E460E4C0025E41AA410A54204D056F8253098470135F8E702F0AAF8084B094C1E46E41AA4100025A54204D056F8253098470135A7
:406A0000F8E770BD488B0000488B0000488B0000508B000010B5431E0A44914204D011F8014B03F8014FF8E710BD03460244934202D003F8011BFAE77047034613F8012B2A
:406A4000002AFBD1181A0138704730B5036811F8014B01334CB11A78A2F14105192D98BF2032A242F3D0002030BD0360012030BD2DE9F0410F46904601F024FC04460D4689
:406A8000B8F1000F11D0C7F30A53C3F16B03002B0BDD1B0503F17F55002405F5401522462B46FFF73BF9BDE8F08120462946BDE8F0810000000000002DE9F04F00239FB0CB
:406AC0001A9382460B46039115924FF000084FF000091993199B1A780D2A05D8092A13D2002A00F0B78111E02B2A06D02D2A02D0202A0BD108E0012200E0002209925A1C0D
:406B000019925B7823B9A5E10133E2E700230993199C2378302B5CD16378582B01D0782B4CD11AAB0093099B5046019319A9AE4A1BAB00F036FE10F00706054600F0A585B6
:406B4000062E05D1013400231994099300F09DBD1A9A3AB11CA8352101F0A1FC50461A9901F019F91B9A062E21D8DFE806F0040D08171C0D04004FF00009C84617E0DDF86F
:406B80007080DDF8749012E01D9B02F2334223F48013DDF8708043EA025908E0DFF84C924FF0000803E06FF000494FF0FF38290740F16B8549F0004900F067BD199B5A1C0C
:406BC00019925B78302BF9D0002B00F05E85012300E000230026B34635460493199B0793199C2778A7F13003DAB2092A0CD8082D4FF00A0204F10104D4BF02FB0B3B02FB40
:406C0000063601351994EBE7504601F08BF801685046059101F086F80068FFF70EFF05990246204601F0ECFC28B100203B462C460246074657E00590504601F073F800681E
:406C4000FFF7FBFE199B05991A1819921B5C002D41D12846302B05D1199B01305A1C19925B78F7E7A3F13102082A42D8199A0792024600200446303B00F1010125D00A4438
:406C800021460719B94211D0013101F1FF3EBEF1080F04DC4FF00A0E0EFB0BFBF2E71029DCBF4FF00A0E0EFB06F6EBE72044082800F1010403DC0A2101FB0B3B04E0102C33
:406CC000DCBF0A2101FB06360021199B581C19905B78084602E02C4608460A46A3F130010929C8D90127652B01D0452B64D16CB904E0652B40F0D7840022012728B9049BDD
:406D0000002B00F0A780044600E00024199B039301331993039B5B782B2B07D02D2B02D04FF0000C09E04FF0010C01E04FF0000C039B02331993039B9B78A3F130010929FE
:406D400038D81946302904D1199B591C19915978F8E7A1F1310EBEF1080F0B462CD8A1F130030593199B0693199B03F1010ECDF864E05B78A3F13001092908D805994FF016
:406D80000A0E0EFB0131A1F130030593ECE70699C1EB0E0EBEF1080F44F61F6E04DC05997145A8BF714600E07146BCF1000F04D0494202E0039919910021002C54D1002896
:406DC00040F06384049A002A40F05F84002F41D14E2B20D002DC492B0AD03BE0692B07D06E2B18D036E000BF208A00000000F07F19A8AA49FFF729FE60B3199B19A8013B41
:406E0000A7491993FFF721FE10B9199B01331993DFF8A4921AE019A8A249FFF716FEC8B1199B1B78282B0FD119A89F491CAA00F0EFFE052808D11D9BDDF8708043F0FF494A
:406E400049F4E00900F021BCDFF870924FF0000800F01BBC039B1993159B002B00F020840023099300F013BC8B1A06932B46002D08BF23465846102C25460393A8BF10257E
:406E8000FEF7D6FE092D8046894613DD874B03EBC50353E91223FEF741FF804630468946FEF7C6FE02460B4640464946FEF784FD804689460F2C36DC069B002B00F0E58332
:406EC00024DD162B07DC794A02EBC302D2E900014B46424615E0069AC4F125039A4222DC724DC4F10F0405EBC403D3E9000142464B46FEF713FF069B1C1B05EBC405D5E96D
:406F00000023FEF70BFF80468946BEE3069B13F1160F08DB654A4046A2EBC30249460CCAFFF726F8EFE7069B651B1D44002D58DD15F00F020AD05D4B03EBC203D3E900018A
:406F400042464B46FEF7EAFE8046894635F00F0500F0BA80B5F59A7F0FDD4FF0000BCDF80CB0CDF81CB0CDF814B02223CAF80030DFF844914FF0000883E14946DFF84091CA
:406F800040464E462D110027012D0ADDEA0703D5D9E90023FEF7C2FE01376D1009F10809F2E78046A1F1547906EBC7064246D6E900014B46FEF7B2FE21F0004389460A466D
:406FC0001B0D3B491B058B428046C6D8A1F580118B4286BFDFF8EC904FF0FF3802F1547972E071D06D4215F00F020AD02F4B404603EBC2034946D3E90023FEF7B9FF80460C
:4070000089462D1160D01F2D08DD4FF0000BCDF80CB0CDF81CB0CDF814B02BE14046494615F0100F0CBF00236A23224E0493002D08DDEB0703D5D6E90023FEF76FFE6D1099
:407040000836F4E7049B80468946EBB1C1F30A53C3F16B03002B0A4616DD1F2B0EDD342BDEBF203B4FF0FF3101FA03F34FF00008CCBF4FF05C7903EA020905E04FF0FF3267
:4070800002FA03F303EA00084046494600220023FFF7ACF80028B8D118E000BFEC890000EF890000F5890000D8890000408A00000000A07CF88900000000F07F0000F8FFF4
:4070C000088B0000FFFFEF7F00230493CDF800B050460799039A234600F0B2FE079000283FF43BAF069A069B002AC3F100034FF0000BA8BF00230E93CDF80CB0079B50465A
:40710000596800F013FE059000283FF42EAF079B0C301A69079B023203F10C019200FFF779FC1BAB00931CAB0193504642464B46CDE90A8901F039F91A9000283FF415AFF3
:407140005046012100F009FF039000283FF40DAF069B049923EAE3771B9B1C9C002BAABF0E9AFA1AD618A3EB010323446FF47F71ACBF3A460E9E8B42C4F1360480F286804D
:40718000C91A1F29A4EB0104C8BFB3494FF00100D5BF00FA01F3C91A149300FA01F3D9BF00230F930F9314903519049BB54214441C442B46A8BF3346A342A8BF2346002BE3
:4071C000C2BFED1AE41AF61A0E9B002B63D1002D7BDC002F40F08380002C00F38A80002E00F3918050461A99059A01F00CF8834600283FF4BAAEC3680024C460039908939D
:4072000000F0E5FFA04280F28D80089B002B40F01582B8F1000F40F01182C9F31303002B40F00C8229F000431B0D1B05B3F1D66F40F20482DBF81430002B6ED059460122C7
